:020000040800F2
:1000000078060020C1010008910300080F020008D3
:100010008D03000809020008210900080000000003
:100020000000000000000000000000009D07000824
:100030000D0200080000000093070008FD070008FB
:10004000DB010008DB010008DB010008DB01000820
:10005000DB010008DB010008DB010008DB01000810
:10006000DB010008DB010008DB010008DB01000800
:10007000DB010008DB010008DB010008DB010008F0
:10008000DB010008DB010008DB010008DB010008E0
:10009000DB010008DB010008DB010008DB010008D0
:1000A000DB010008DB010008DB010008DB010008C0
:1000B000DB010008DB010008DB010008DB010008B0
:1000C000DB010008DB010008DB010008DB010008A0
:1000D000DB010008DB010008DB010008DB01000890
:1000E000DB010008DB010008DB010008DB01000880
:1000F000DB010008DB010008DB010008DB01000870
:10010000DB01000895070008DB010008DB0100089F
:10011000DB010008DB010008DB010008E108000842
:10012000DB010008DB010008DB010008DB0100083F
:10013000DB010008DB010008DB010008DB0100082F
:10014000DB010008DB010008DB010008DB0100081F
:10015000DB010008DB010008DB010008DB0100080F
:10016000DB010008DB010008DB010008DB010008FF
:10017000DB010008DB010008DB01000800000000D3
:10018000DB010008DB010008DB010008DB010008DF
:10019000DB010008DB010008DB01000800000000B3
:1001A000DB010008DB010008DB010008DFF80CD0F0
:1001B00000F018F800480047AD0A00087806002053
:1001C0000648804706480047FEE7FEE7FEE7FEE7F1
:1001D000FEE7FEE7FEE7FEE7FEE7FEE705080008AC
:1001E000AD010008064C074D06E0E06840F0010351
:1001F00094E8070098471034AC42F6D3FFF7DAFFD3
:10020000583700087837000800BFFEE7704700BF86
:10021000FEE7000010B54FF40073012211461248AA
:1002200000F0E1FB4FF40073022201210E4800F0C0
:1002300001FC4FF400710C4800F0CBFB4FF48071CF
:10024000094800F0C6FB00F071F84FF40071064851
:1002500000F0BDFB00F06AF84FF48071024800F036
:10026000B6FB00F063F810BD0004024010B54FF477
:100270000073012211460E4800F0B5FB4FF40073E5
:10028000022201210A4800F0D5FB4FF40071084812
:1002900000F09DFB4FF48071054800F09AFB00F0E0
:1002A00045F84FF40071024800F093FB10BD0000C8
:1002B0000004024010B54FF400711B4800F089FBA8
:1002C00000F034F84FF48071174800F082FB00F022
:1002D0002DF84FF4007301220021134800F083FB36
:1002E00005E0601CC4B2FE2C01DDFFF7BFFF4FF438
:1002F00000710D4800F06FFB0028F2D14FF48071BF
:10030000094800F064FB00F011F84FF4007301227B
:100310001146054800F067FB4FF4007302220121EB
:10032000014800F087FB10BD00040240782000BFA8
:10033000011EA0F1010290B2FAD1704710B540F64B
:10034000014000F071FD1023002201210E4800F051
:100350004AFB1023022200210B4800F06BFB102106
:10036000094800F034FBE02300220121064800F098
:100370003AFBE02302220021034800F05BFBE0216E
:10038000014800F024FB10BD0004024000BFFEE75E
:100390007047000010B5002807DA0A07140E054A56
:1003A00000F00F031B1FD45403E00A07130E024A88
:1003B000135410BD18ED00E000E400E070B5002417
:1003C0000CE0002506E00020074901EB85010855F7
:1003D000681CC5B2802DF6DB601CC4B2042CF0DBB7
:1003E00000F0F6F870BD00003400002070B50B4638
:1003F000CE1701EB5676C6F3C702CE1701EB567641
:10040000F610A1EBC606F4B20123A340DDB20E4BF9
:1004100003EB80039B5CDB430B4E06EB8006B3547F
:10042000094B03EB80039B5C2B43074E06EB8006D6
:10043000B354054B03EB80039B5CDB43024E06EB9E
:100440008006B35470BD00003400002070B50A4629
:10045000CE1701EB5676C6F3C703CE1701EB5676DF
:10046000F610A1EBC606F4B20122A240D5B2054AAD
:1004700002EB8002D25C2A43024E06EB8006F25465
:1004800070BD00003400002010B540F6014000F0BF
:10049000CBFC4FF48073012211464C4800F0A3FAC4
:1004A0004FF4807302220121484800F0C3FA4FF450
:1004B0008071464800F08DFA4FF400730122114616
:1004C000424800F090FA4FF40073022201213F48A5
:1004D00000F0B0FA4FF400713C4800F07AFA4FF4A3
:1004E000FA7000F02FFA0021AE2000F036F900215A
:1004F000084600F032F90021102000F02EF900210A
:10050000402000F02AF90021812000F026F9002186
:10051000CF2000F022F90021A12000F01EF90021D7
:10052000C82000F01AF90021A62000F016F90021D9
:10053000A82000F012F900211F2000F00EF9002180
:10054000D32000F00AF90021084600F006F9002146
:10055000D52000F002F90021802000F0FEF80021F3
:10056000D92000F0FAF80021F12000F0F6F800217F
:10057000DA2000F0F2F80021084600F0EEF8002141
:10058000DB2000F0EAF80021402000F0E6F800212E
:10059000202000F0E2F80021022000F0DEF8002127
:1005A0008D2000F0DAF80021142000F0D6F80021A8
:1005B000A42000F0D2F80021A62000F0CEF80021FF
:1005C000AF2000F0CAF8FFF7F9FE10BD00040240AA
:1005D00070B500241CE004F1B001C8B2002100F0A5
:1005E000BCF80021084600F0B8F80021102000F007
:1005F000B4F8002508E0084901EB8501085D0121F8
:1006000000F0ABF8681CC5B2802DF4DB601CC4B2EE
:10061000042CE0DB70BD0000340000202DE9FF4F0A
:1006200081B080460E461C4600962046E31704EB38
:100630005373DB1021464FEAE47C04EB5C7C4FEA09
:10064000EC0CA4EBCC0CBCF1000F02D04FF0010C71
:1006500001E04FF0000C6344224604EBD27C4FEAE9
:100660006C0C03FB0CF303F0FF0B03982038C7B2AC
:10067000002547E00C2C07D107EB4700234901EB8D
:10068000800010F805A014E0102C05D1204800EBE4
:10069000071010F805A00CE0182C07D107EBC700D5
:1006A0001C4901EB800010F805A002E005B0BDE890
:1006B000F08F4FF000091FE00AF0800020B13146B2
:1006C0004046FFF7C3FE03E031464046FFF78EFE8B
:1006D0004FEA4A604FEA106A701CC6B20098301A9E
:1006E000A04205D1009E08F1010000F0FF0806E0DD
:1006F00009F1010000F0FF09B9F1080FDCDB00BFD0
:10070000681CC5B25D45B5DB00BFCFE7981F000888
:100710000C240008FC290008F0B506460F461446D4
:100720001D4613E022782B4639463046FFF776FF08
:10073000284605EBD07106EB6101CEB2C5F1800011
:10074000B04202DA0026B81CC7B2641C2078202808
:1007500002DB20787E28E5DDF0BD70B505460C464D
:10076000FFF758FD782000F01BF8FFF7A3FD1CB140
:10077000402000F015F802E0002000F011F8FFF72B
:1007800099FD284600F00CF8FFF794FDFFF76EFD89
:1007900070BD704710B500F07DFB10BD70470000C4
:1007A00070B50446002524E04FF48071124800F033
:1007B0000EF904F0800028B14FF400710E4800F0EB
:1007C00008F904E04FF400710B4800F000F9FFF75E
:1007D000ADFD4FF48071084800F0FBF8FFF7A6FD6F
:1007E0004FF48071044800F0F2F86006040E681CB3
:1007F000C5B2082DD8DB70BD0004024010B500F072
:10080000ABF810BD08B53048006840F470002E49C0
:1008100008602E48006840F001002C49086000BFC5
:100820002A48006800F002000028F9D000BF2748DD
:100830000830006840F0800024490831086000203A
:10084000009002E00098401C009000985028F9D3D6
:100850001E480830006840F090001C4908310860CC
:100860000020009002E00098401C00900098502862
:10087000F9D300BF15480830006820F00300134981
:100880000831086011480068114908400F490860A4
:100890000846006820F48020086000200B490831D9
:1008A000086000BF09480830006800200028F9D11E
:1008B00008480649091D0860002004490C310860F9
:1008C00000F08CFC08BD000088ED00E0003802401C
:1008D000FFFFF6FE1030002410B500F083FC10BDC1
:1008E00010B501210C4800F0F2FD012812D10B488F
:1008F0000068401C094908600121074800F0E4FD38
:10090000064800680A21B0FBF1F201FB120008B9A9
:1009100000F0B2F810BD0000001400402C000020D0
:1009200000BFFEE702E008C8121F08C1002AFAD182
:1009300070477047002001E001C1121F002AFBD15F
:10094000704700000349086000BF02490968002998
:10095000FBD17047000000200448006820B1034824
:100960000068401E01490860704700000000002038
:10097000F0B503461C6A5D6A00200DE00126864042
:1009800016403EB187000F26BE40B443860001FAF0
:1009900006F63443461CB0B20828EFD3082011E015
:1009A0000126864016405EB1A0F10806B7000F266A
:1009B000BE40B543A0F10806B60001FA06F635437D
:1009C000461CB0B21028EBD31C625D62F0BD8162A0
:1009D00070478161704702461069084008B10120E4
:1009E00070470020FCE7F0B504460D461646216826
:1009F000E268002019E0012787401F409FB14FEABD
:100A0000400C032707FA0CF7B943470005FA07F72C
:100A100039434FEA400C032707FA0CF7BA43470063
:100A200006FA07F73A43471CB8B21028E3D321600F
:100A3000E260F0BDF0B50C461546012C03D14668C6
:100A40001E43466002E046689E434660826800217D
:100A50000DE001268E401E403EB14F000326BE40F1
:100A6000B2434E0005FA06F632434E1CB1B21029CD
:100A7000EFD38260F0BD000010B50A48007820B9BD
:100A800010210948FFF7A5FF03E010210648FFF7F2
:100A90009EFF0448007808B9012000E000200149C9
:100AA000087010BD0400002000040240FFF714FF8E
:100AB00000F0C0FB00F00AFEFFF7E6FCFFF73EFC8B
:100AC00011E00C2308A200210846FFF725FEFFF7DE
:100AD0007FFD41F28830FFF735FFFFF76FFC41F2F1
:100AE0008830FFF72FFFECE748656C6C6F2C2057C0
:100AF0006F726C64210000002DE9F04103460D4641
:100B0000164600240027A0462A48006800F4E0604A
:100B1000B0F5E06F03D100BF4FF0040830E0254886
:100B2000006800F4E060B0F5C06F03D101274FF01A
:100B3000030825E01F48006800F4E060B0F5A06FEE
:100B400002D10227B8461BE01A48006800F4E060B2
:100B5000B0F5806F03D103274FF0010810E015486E
:100B6000006800F4E060B0F5407F03D104274FF047
:100B7000000805E04FF4A06000F020F80227B84616
:100B8000C7F1040005FA00F4C8F104010F20C840C1
:100B90003040044324010848C45403F01F010120DD
:100BA00088405911890001F1E021C1F80001BDE838
:100BB000F08100000CED00E000E400E00249014398
:100BC000024A1160704700000000FA050CED00E0D9
:100BD0002DE9F04105461D27002400261A48046827
:100BE00001E01948046804F045000028F9D004F039
:100BF000010030B11127012000F022FA3846BDE88B
:100C0000F08104F0040028B11327042000F018FA42
:100C10003846F4E700F0E8F9A84202D00827384641
:100C2000EDE70A4800F00CFA002000F027FA06462B
:100C30000748304010B91D273846E0E7304600F03D
:100C400009F807463846DAE7342C0140FF07C000B0
:100C500008E0F9FD01461C2001F000420AB1002025
:100C60004EE001F080420AB1012049E001F000525B
:100C70000AB1022044E001F080520AB103203FE0B3
:100C800001F000620AB104203AE001F080620AB18A
:100C9000052035E001F080720AB1062030E001F451
:100CA00000020AB107202BE001F480020AB10820FB
:100CB00026E001F400120AB1092021E001F48012BB
:100CC0000AB10A201CE001F400220AB10B2017E04F
:100CD00001F480320AB10C2012E001F400420AB1A2
:100CE0000D200DE001F480420AB10E2008E001F46D
:100CF00000520AB10F2003E001F0080202B11020F7
:100D0000704700002DE9F04F8CB0064600200A9095
:100D10003EA090E8004CC068CDE905BECDF810A01B
:100D200007900FF2EC0ADAE9000ACDE9020A0FF2A5
:100D3000E00ADAE9000ACDE9000A38480068C0F3A1
:100D400081000B900B9820B1012804D0022828D1F3
:100D500003E0334927E0334925E03048001F0068AD
:100D600000F03F072D48001F0068C0F3881C2B4887
:100D7000001F0068C0F30140401C4FEA40092748AB
:100D8000001F006800F48008B8F5800F01D1254BE2
:100D900000E0234BB3FBF7F000FB0CF0B0FBF9F1E4
:100DA00001E01F4900BF00BF1C480068C0F30314E6
:100DB00004A8055D21FA05F218480068C0F38224F2
:100DC00002A8055D22FA05F0099014480068C0F3F6
:100DD00042341DF8045022FA05F0089036B1012E75
:100DE00006D0022E06D0032E0AD106E00A9108E0B2
:100DF0000A9206E009980A9003E008980A9000E039
:100E000000BF00BF0A980CB0BDE8F08F00000000E2
:100E10000000000001020304060708090838024028
:100E20000024F40040787D01074A02EB9011D1F8CC
:100E3000001800F01F0301229A401143024B03EBFC
:100E40009012C2F80018704700300240074A02EBC7
:100E50009011D1F8001800F01F0301229A4091432D
:100E6000024B03EB9012C2F80018704700300240AA
:100E7000074A02EB9011D1F8001800F01F0301227D
:100E80009A401143024B03EB9012C2F800187047CE
:100E90000030024010B51D20464908704FF48070A4
:100EA00000F0E2F8E0B144480068012804D100F005
:100EB00089F84049087002E01D203E4908704FF44F
:100EC000807000F0CBF84CF23A3000F0BFF801200F
:100ED0003A49086000203A4908603648007810BD59
:100EE000022000F0C1F878B1022000F0B7F84CF20F
:100EF0003A3000F0ABF800203149086012202D494B
:100F0000087008460078EAE7082000F0ADF878B1EC
:100F1000082000F0A3F84CF23A3000F097F80020D7
:100F20002749086014202349087008460078D6E74E
:100F30004FF4007000F098F880B14FF4007000F0AA
:100F40008DF84CF23A3000F081F800201C4908601E
:100F500017201849087008460078C0E7102000F0F4
:100F600083F878B1102000F079F84CF23A3000F0B4
:100F70006DF800201249086015200E4908700846D7
:100F80000078ACE7202000F06FF878B1202000F066
:100F900065F84CF23A3000F059F800200849086032
:100FA0001620044908700846007898E70148007840
:100FB00095E70000200000201C00002024000020F5
:100FC0002800002010B51D24402200210C2000F034
:100FD00011F8002000F070F800F028F80C20FFF75E
:100FE000F7FD0446204610BD01480068C0B27047B6
:100FF000102C014030B5034600200B4C246824F42B
:101000008064094D2C602C1F246800242D1F2C6047
:101010002C462160241D206820F0FF0043EA0204D2
:1010200020432C1D206030BD0C2C0140034800687B
:1010300040F4806001490860704700000C2C0140BA
:101040000149086070470000382C014002490968D6
:101050008143014A116070473C2C014001490860FE
:1010600070470000382C014001460020024A1268F7
:101070000A4002B101207047342C01400146002093
:1010800031B1012907D0022909D003290FD10AE083
:10109000084A10680CE0074A121D106808E0054A6B
:1010A0000832106804E0034A0C32106800E000BF08
:1010B00000BF7047142C01400549096821F44071B4
:1010C000034A11601146096801431160704700002E
:1010D0000C2C0140002000213D4A126842F480326D
:1010E0003B4B1A6000BF401C394A126802F40031C1
:1010F00019B94FF6FF729042F5D1354A126802F4E1
:10110000003232B900BF324A126802F40032002ABB
:10111000F9D02F4A4032126842F080522C4B4033B3
:101120001A602C4A126842F440422A4B1A60284A3C
:1011300008321268264B08331A601A46126842F4C5
:1011400000421A601A46126842F4A0521A60224AFB
:101150001B1F1A601A1F126842F080721B1F1A6050
:1011600000BF1B4A126802F00072002AF9D0194A27
:10117000126842F48032174B1A6000BF154A526859
:1011800002F48032002AF9D0124A126842F4003286
:10119000104B1A6000BF0F4A526802F40032002A56
:1011A000F9D00B4A0832126822F00302084B0833C8
:1011B0001A601A46126842F002021A6000BF044A1E
:1011C0000832126802F00802002AF8D070470000C6
:1011D00000380240007000401978400A10B5FFF74F
:1011E00079FF10BD10B5124800684FF47A71B0FB5A
:1011F000F1F4601EB0F1807F01D301200FE0601E8A
:101200004FF0E02148610F214FF0FF30FFF7C2F8A7
:1012100000204FF0E021886107200861002008B11C
:1012200000BFFEE70021481EFFF7B4F810BD000024
:10123000300000207FB540F2E73441F26F7541F293
:101240000500FFF7F1FD134800F026F8684600F0AE
:101250004AF9ADF800500020ADF80200ADF80400E6
:101260000294ADF806008DF80C006946094800F0BC
:10127000DBF80121074800F027F90121054800F0BB
:101280001FF9032201213720FFF736FC014800F047
:10129000C5F87FBD0014004010B504465C49601AD3
:1012A0008C426FD019DC5B49A4EB01008C424ED01C
:1012B00009DCB4F1804F2ED057482044A0B3B0F5DC
:1012C000806F72D13AE0B0F5806F49D0B0F5006F11
:1012D0004FD0B0F5406FF4D17BE0B0F5923F5BD0DA
:1012E00009DCB0F5806F73D0B0F5644F0AD0B0F56B
:1012F000684F5AD147E0B0F5943F57D0B0F5963FCC
:1013000053D15CE04FF41060FFF7B2FD4FF4106072
:10131000FFF79CFD79E04FF40060FFF7A9FD4FF463
:101320000060FFF793FD70E0FFE740F60100FFF774
:101330009FFD40F60100FFF789FD66E040F60200E0
:10134000FFF796FD40F60200FFF780FD5DE040F6F6
:101350000300FFF78DFD40F60300FFF777FD54E033
:1013600040F60400FFF784FD40F60400FFF76EFD31
:101370004BE040F60500FFF77BFD40F60500FFF768
:1013800065FD42E02EE040F60110FFF771FD40F6EA
:101390000110FFF75BFD38E04FF41160FFF768FDC7
:1013A0004FF41160FFF752FD2FE02DE040F61110D1
:1013B000FFF75EFD40F61110FFF748FD25E040F60F
:1013C0001210FFF755FD40F61210FFF73FFD1CE02D
:1013D00011E040F60600FFF74BFD40F60600FFF770
:1013E00035FD12E040F60700FFF742FD40F607002A
:1013F000FFF72CFD09E040F60800FFF739FD40F645
:101400000800FFF723FD00E000BF00BF10BD000093
:10141000001C0040000C004000FCFFBF016841F0D0
:1014200001010160704700000A8882621D4A9042F3
:101430000ED0B0F1804F0BD01B4A904208D01B4A0F
:10144000904205D01A4A904202D01A4A90420BD1DB
:10145000026822F07002026002684B881A43026040
:1014600002688B881A4302608A68C262124A9042FC
:101470000AD0124A904207D0026822F440720260F9
:101480000268CB881A430260064A904202D0094A99
:10149000904201D10A7B0263426942F0010242613B
:1014A00070470000000001400004004000080040B8
:1014B000000C0040000401400010004000140040F7
:1014C000C2680A43C2607047CA430261704702465D
:1014D000D06800EA01031069084010B10BB1012087
:1014E00070470020FCE700210180418081804FF699
:1014F000FF7181600021C180017370472DE9F047C1
:1015000004460D460027B846B94600263349601AFE
:101510008C4235D00CDC32482044E8B1B0F5806F05
:101520001FD0B0F5006F21D0B0F5406F32D122E06E
:10153000B0F5806F29D0B0F5184F03D0B0F51C4F2F
:1015400028D104E00320FFF7DDFB074623E003205A
:10155000FFF7D8FB07461EE00220FFF7D3FB074644
:1015600019E00220FFF7CEFB074614E00220FFF748
:10157000C9FB07460FE00220FFF7C4FB07460AE05D
:101580000220FFF7BFFB074605E00220FFF7BAFB8A
:10159000074600E000BF00BFE06800F4004070B103
:1015A000780000EB5500B0FBF5F64FF6F07006EA58
:1015B0000008C6F3420948EA0900A0600CE007EB06
:1015C0005500B0FBF5F64FF6F07006EA000806F09D
:1015D0000F0948EA0900A060BDE8F08700780040E4
:1015E00000BCFFBF10B504463349601A8C424DD091
:1015F0000CDC32482044E0B1B0F5806F22D0B0F569
:10160000006F31D0B0F5406F52D136E0B0F5806F49
:1016100045D0B0F5184F03D0B0F51C4F48D11AE0B3
:1016200040F60410FFF724FC40F60410FFF70EFC10
:101630003FE040F61100FFF71BFC40F61100FFF7FA
:1016400005FC36E040F61200FFF712FC40F61200EF
:10165000FFF7FCFB2DE040F60510FFF709FC40F614
:101660000510FFF7F3FB24E040F61300FFF700FC42
:1016700040F61300FFF7EAFB1BE040F61400FFF70B
:10168000F7FB40F61400FFF7E1FB12E040F61E0006
:10169000FFF7EEFB40F61E00FFF7D8FB09E040F62F
:1016A0001F00FFF7E5FB40F61F00FFF7CFFB00E050
:1016B00000BF00BF10BD00000078004000BCFFBFAD
:1016C000C16841F40051C1607047000010B54FF48B
:1016D0004060FFF7A9FB41F20410FFF7A5FB4FF4B0
:1016E000007207211C48FFF743F94FF4806207217D
:1016F0001948FFF73DF94FF4007301220221164803
:10170000FFF771F94FF40073022200211248FFF72E
:1017100091F94FF48063012202210F48FFF763F92A
:101720004FF48063022200210B48FFF783F90B4836
:10173000FFF758FF4FF4E1310848FFF7DFFE0421BF
:10174000064800F00DF80821044800F011F803489D
:10175000FFF7B6FF10BD000000000240001001407E
:101760000A460021C16821F004011143C16070479D
:101770000A460021C16821F008011143C160704789
:101780000000000000000000002F00000000070023
:10179000070000147F147F1400242A7F2A1200629D
:1017A0006408132300364955225000000503000049
:1017B00000001C224100000041221C000014083ED1
:1017C00008140008083E0808000000A06000000897
:1017D00008080808000060600000002010080402EB
:1017E000003E5149453E0000427F400000426151A9
:1017F0004946002141454B31001814127F10002743
:1018000045454539003C4A49493000017109050305
:1018100000364949493600064949291E0000363636
:101820000000000056360000000814224100001499
:101830001414141400004122140800020151090676
:1018400000324959513E007C1211127C007F4949F7
:101850004936003E41414122007F4141221C007F28
:1018600049494941007F09090901003E4149497A36
:10187000007F0808087F0000417F410000204041B0
:101880003F01007F08142241007F40404040007F1C
:10189000020C027F007F0408107F003E4141413E60
:1018A000007F09090906003E4151215E007F0919A8
:1018B00029460046494949310001017F0101003FA5
:1018C0004040403F001F2040201F003F4038403F25
:1018D0000063140814630007087008070061514989
:1018E000454300007F41410000552A552A5500001C
:1018F00041417F000004020102040040404040409A
:10190000000001020400002054545478007F484431
:10191000443800384444442000384444487F003868
:101920005454541800087E0901020018A4A4A47C91
:10193000007F080404780000447D4000004080845B
:101940007D00007F102844000000417F4000007CA3
:1019500004180478007C08040478003844444438AF
:1019600000FC242424180018242418FC007C0804FB
:10197000040800485454542000043F444020003CD4
:101980004040207C001C2040201C003C4030403C5B
:10199000004428102844001CA0A0A07C00446454EB
:1019A0004C4414141414141400000000000000002F
:1019B0000000000000000000000000F8000000002F
:1019C000000000333000000000100C06100C060070
:1019D000000000000000000040C07840C0784000D7
:1019E000043F04043F040400007088FC0830000039
:1019F000001820FF211E0000F008F000E018000091
:101A000000211C031E211E0000F008887000000049
:101A10001E2123241927211010160E00000000009B
:101A20000000000000000000000000E018040200B8
:101A3000000000071820400000020418E000000029
:101A40000040201807000000404080F08040400027
:101A50000202010F01020200000000F0000000007D
:101A60000101011F01010100000000000000000051
:101A700080B07000000000000000000000000000C6
:101A8000000101010101010100000000000000004F
:101A900000303000000000000000000080601804EA
:101AA000006018060100000000E010080810E000C7
:101AB000000F102020100F00001010F80000000090
:101AC0000020203F202000000070080808887000D7
:101AD0000030282422213000003008888848300057
:101AE0000018202020110E000000C02010F8000077
:101AF00000070424243F240000F808888808080010
:101B00000019212020110E0000E010888818000024
:101B1000000F112020110E0000380808C8380800F6
:101B20000000003F00000000007088080888700076
:101B3000001C222121221C0000E010080810E000F7
:101B40000000312222110F00000000C0C000000080
:101B500000000030300000000000008000000000A5
:101B6000000080600000000000008040201008009D
:101B70000001020408102000404040404040400066
:101B80000404040404040400000810204080000041
:101B90000020100804020100007048080808F00046
:101BA0000000003036010000C030C828E810E00016
:101BB0000718272423140B000000C038E0000000A1
:101BC000203C23020227382008F88888887000000B
:101BD000203F202020110E00C030080808083800DF
:101BE000071820202010080008F808080810E00056
:101BF000203F202020100F0008F88888E8081000F7
:101C0000203F20202320180008F88888E8081000CA
:101C1000203F200003000000C03008080838000002
:101C200007182020221E020008F808000008F80803
:101C3000203F210101213F20000808F8080800008A
:101C40000020203F2020000000000808F8080800BD
:101C5000C08080807F00000008F888C02818080035
:101C6000203F20012638200008F80800000000006E
:101C7000203F20202020300008F8F800F8F8080065
:101C8000203F003F003F200008F830C00008F8085F
:101C9000203F200007183F00E01008080810E0006F
:101CA0000F10202020100F0008F808080808F00086
:101CB000203F210101010000E01008080810E000A9
:101CC0000F18242438504F0008F88888888870003E
:101CD000203F2000030C30200070880808083800DE
:101CE0000038202121221C00180808F808081800D4
:101CF0000000203F2000000008F808000008F80855
:101D0000001F202020201F000878880000C8380805
:101D1000000007380E010000F80800F80008F8007D
:101D2000033C0700073C0300081868808068180817
:101D300020302C03032C30200838C800C838080095
:101D40000000203F2000000010080808C8380800E4
:101D50002038262120201800000000FE0202020088
:101D60000000007F40404000000C30C00000000038
:101D7000000000010638C00000020202FE00000060
:101D8000004040407F000000000004020202040006
:101D90000000000000000000000000000000000043
:101DA000808080808080808000020204000000002B
:101DB0000000000000000000000080808080000023
:101DC0000019242222223F2008F800808000000011
:101DD000003F112020110E000000008080800000D4
:101DE000000E112020201100000000808088F800E3
:101DF000000E112020103F20000080808080000015
:101E0000001F222222221300008080F08888881878
:101E10000020203F20200000000080808080800083
:101E2000006B94949493600008F800808080000018
:101E3000203F210000203F200080989800000000F3
:101E40000020203F20200000000000809898000023
:101E500000C08080807F000008F800008080800043
:101E6000203F24022D302000000808F80000000068
:101E70000020203F20200000808080808080800023
:101E8000203F20003F20003F8080008080800000B5
:101E9000203F210000203F20000080808080000043
:101EA000001F202020201F00808000808000000074
:101EB00080FFA12020110E000000008080808000A3
:101EC000000E112020A0FF80808080008080800094
:101ED00020203F21200001000000808080808000C1
:101EE0000033242424241900008080E08080000036
:101EF0000000001F20200000808000000080800083
:101F0000001F202020103F208080800000808080E3
:101F100000010E3008060100808000800080808073
:101F20000F300C030C300F00008080008080800098
:101F30000020312E0E3120008080800000808080C3
:101F400080818E7018060100008080808080800073
:101F50000021302C2221300000000000807C020291
:101F600000000000003F404000000000FF000000B3
:101F700000000000FF0000000002027C8000000062
:101F80000040403F0000000000060101020204047E
:101F90000000000000000000000000000000000041
:101FA00000000000000000003F40000000000000B2
:101FB00000003000400030004000000009000BC06D
:101FC0003D000BC03D00090018C024407FE02240C6
:101FD00031800000180024C01B000D8032400180B9
:101FE00003801C4027401C80074000401000600018
:101FF00000000000000000000000000000001F8042
:10200000204040200000402020401F8000000000B1
:10201000090006001F8006000900000004000400FB
:102020003F80040004000000001000600000000079
:10203000000000000400040004000400040000008C
:10204000000000400000000000000000002001C06F
:1020500006003800400000001F8020402040204043
:102060001F800000000010403FC000400000000042
:1020700018C0214022402440184000001080204019
:10208000244024401B80000002000D0011003FC0CE
:10209000014000003C802440244024402380000074
:1020A0001F80244024403440038000003000200082
:1020B00027C03800200000001B802440244024401A
:1020C0001B8000001C0022C0224022401F80000014
:1020D00000000000084000000000000000000000B8
:1020E0000460000000000000000004000A0011006D
:1020F0002080404009000900090009000900000093
:1021000000004040208011000A0004001800200058
:1021100023402400180000001F8020402740294051
:102120001F400000004007C039000F0001C0004000
:1021300020403FC0244024401B8000001F802040DE
:10214000204020403080000020403FC02040204000
:102150001F80000020403FC024402E4030C00000BF
:1021600020403FC024402E00300000000F001080AF
:10217000204022403380020020403FC00400040081
:102180003FC02040204020403FC020402040000071
:102190000060202020203FC02000200020403FC0C1
:1021A00024400B0030C0204020403FC02040004071
:1021B000004000C03FC03C0003C03C003FC00000E6
:1021C00020403FC00C4023003FC020001F80204023
:1021D000204020401F80000020403FC024402400B9
:1021E000180000001F802140214020E01FA00000B7
:1021F00020403FC02440260019C0004018C02440A1
:102200002440224031800000300020403FC0204068
:102210003000000020003F80004000403F80200050
:1022200020003E0001C0070038002000380007C031
:102230003C0007C038000000204039C0060039C00B
:10224000204000002000384007C038402000000037
:10225000304021C02640384020C00000000000006F
:102260007FE0402040200000000070000C00038050
:10227000004000000000402040207FE000000000FF
:1022800000002000400020000000000000100010AE
:1022900000100010001000100000000040000000BE
:1022A00000000000000002800540054003C000401F
:1022B00020003FC004400440038000000000038071
:1022C0000440044006400000000003800440244015
:1022D0003FC000400000038005400540034000006F
:1022E000000004401FC0244024402000000002E001
:1022F000055005500650042020403FC00440040013
:1023000003C000400000044027C00040000000005F
:1023100000100010041027E00000000020403FC023
:102320000140070004C00440204020403FC000405E
:102330000040000007C0040007C0040003C0000004
:10234000044007C00440040003C0004000000380B4
:102350000440044003800000041007F004500440CF
:1023600003800000000003800440045007F00010C8
:10237000044007C0024004000400000000000640C2
:102380000540054004C00000000004001F80044018
:1023900000400000040007800040044007C00040E7
:1023A0000400070004C0018006000400060001C00C
:1023B000070001C006000000044006C0010006C07E
:1023C000044000000410071004E00180060004002F
:1023D0000000044005C0064004400000000000006A
:1023E00004007BE040200000000000000000FFF03F
:1023F00000000000000040207BE00400000000001E
:10240000400080004000200020004000000000004C
:1024100000000000000000000000000000000000BC
:1024200000001FCC000C00000000000000000800AD
:10243000300060000800300060000000022003FC53
:102440001E20022003FC1E200220000000000E18A7
:1024500011043FFF10840C78000000000F0010846E
:102460000F3800C0077818840078000000780F84C7
:1024700010C411240E9800E40084000808006800CD
:1024800070000000000000000000000000000000DC
:10249000000007E01818200440020000000040027D
:1024A0002004181807E0000000000000024002406D
:1024B00001800FF001800240024000000080008097
:1024C00000800FF800800080008000000001000DF7
:1024D000000E00000000000000000000000000806E
:1024E0000080008000800080008000800000000CE0
:1024F000000C0000000000000000000000000006CA
:10250000001800600180060018002000000007F09D
:10251000080810041004080807F000000000080470
:1025200008041FFC000400040000000000000E0C62
:1025300010141024104411840E0C000000000C181C
:1025400010041104110412880C700000000000E057
:102550000320042408241FFC0024000000001F980E
:10256000108411041104108810700000000007F09E
:1025700008881104110418880070000000001C0075
:10258000100010FC13001C001000000000000E38AA
:1025900011441084108411440E380000000007001C
:1025A000088C10441044088807F000000000000068
:1025B0000000030C030C00000000000000000000FD
:1025C0000001010600000000000000000000008083
:1025D000014002200410080810040000022002201C
:1025E000022002200220022002200000000010042D
:1025F00008080410022001400080000000000E00C6
:102600001200100C106C10800F00000003E00C187A
:1026100013E4142417C4082807D000000004003C69
:1026200003C41C40074000E4001C000410041FFC0D
:102630001104110411040E880070000003E00C184E
:1026400010041004100410081C10000010041FFCDB
:10265000100410041004080807F0000010041FFC08
:102660001104110417C410040818000010041FFC02
:102670001104110017C010000800000003E00C183E
:102680001004100410441C780040000010041FFCCB
:1026900010840080008010841FFC100400001004CF
:1026A00010041FFC100410040000000000030001CF
:1026B000100110011FFE10001000000010041FFC8C
:1026C000110403801464181C1004000010041FFC83
:1026D0001004000400040004000C000010041FFC9F
:1026E0001F0000FC1F001FFC1004000010041FFC52
:1026F0000C04030000E010181FFC100007F008088D
:10270000100410041004080807F0000010041FFC57
:1027100010841080108010800F00000007F008184F
:1027200010241024101C080A07F2000010041FFCDB
:102730001104110011C011300E0C000400000E1C19
:1027400011041084108410441C380000180010007C
:1027500010041FFC100410001800000010001FF8E7
:1027600010040004000410041FF8100010001E00E4
:1027700011E0001C007013801C0010001FC0103CF2
:1027800000E01F0000E0103C1FC000001004180C07
:10279000163401C001C01634180C100410001C00BF
:1027A000130400FC13041C00100000000804101C9B
:1027B0001064108413041C041018000000000000B2
:1027C00000007FFE40024002400200000000300096
:1027D0000C0003800060001C0003000000004002A9
:1027E000400240027FFE00000000000000000000E8
:1027F00020004000400040002000000000010001D7
:102800000001000100010001000100010000400082
:1028100040002000000000000000000000000098C0
:10282000012401440144014400FC000410001FFC89
:10283000008801040104008800700000000000709E
:1028400000880104010401040088000000000070F9
:1028500000880104010411081FFC0004000000F8B6
:10286000014401440144014400C800000000010487
:1028700001040FFC1104110411001800000000D61F
:1028800001290129012901C90106000010041FFCCA
:10289000008401000100010400FC000400000104A8
:1028A000190419FC000400040000000000000003EB
:1028B00000010101190119FE0000000010041FFCB5
:1028C0000024004001B4010C0104000000001004C9
:1028D00010041FFC0004000400000000010401FCBF
:1028E0000104010001FC0104010000FC010401FCE1
:1028F000008401000100010400FC0004000000F855
:10290000010401040104010400F80000010101FFB9
:1029100000850104010400880070000000000070C0
:10292000008801040104010501FF00010104010404
:1029300001FC00840104010001800000000000CCC3
:102940000124012401240124019800000000010059
:10295000010007F80104010400000000010001F873
:10296000000400040004010801FC000401000180CF
:102970000170000C001001600180010001F0010CE9
:10298000003001C00030010C01F001000000010422
:10299000018C00740170018C0104000001010181AF
:1029A0000171000E00180160018001000000018427
:1029B000010C013401440184010C000000000000FE
:1029C0000000000001003EFC400240020000000048
:1029D00000000000FFFF00000000000000004002B7
:1029E00040023EFC0100000000000000000060000A
:1029F0008000800040004000200020000000000017
:102A000000000000000000000000000000000000C6
:102A100000000000000000000000000000000000B6
:102A20000000000000000000000000000000000F97
:102A300080380FFE380F80380000000000000000D2
:102A4000000000000000000000000100000600007F
:102A50000C00003800003100000600000C000038B7
:102A600000003000000000000000000061800067EE
:102A7000F807F9800061800061800061800061805A
:102A80000067F807F9800061800000000000000086
:102A9000000001C0E003E0F00630080418081FFF42
:102AA000FE040E080787F00381E00000000000002C
:102AB00001F000060C00040408060C7001F9C000C7
:102AC0000E00003BE000EC18070808040C18000397
:102AD000E00000000001E00007F003F818041C0803
:102AE00004170807E1D003C0E00023B0003C080051
:102AF000200800001000000000000001000031006C
:102B0000003200001C000000000000000000000077
:102B100000000000000000000000000000000000B5
:102B20000000000000000000000000007F0001FF26
:102B3000C00780F00C001810000420000200000004
:102B40000000002000021000040C00180780F001B3
:102B5000FFC0007F00000000000000000000000037
:102B60000000000000000000420000660000660057
:102B7000003C0000180003FFC0001800003C0000EB
:102B80006600006600004200000000000800000827
:102B90000000080000080000080001FFC000080055
:102BA0000008000008000008000008000000000005
:102BB000000100003100003200001C000000000095
:102BC0000000000000000000000000000000000005
:102BD00000000000080000080000080000080000D5
:102BE00008000008000008000008000008000008B5
:102BF0000000000000000000000000003800003865
:102C0000000038000000000000000000000000008C
:102C100000000000000000000000000000060000AE
:102C20001C000070000180000E0000380000C00091
:102C30000700001C00003000000000000000000041
:102C40007F8001FFE0038070060018040008040084
:102C50000806001803807001FFE0007F800000007C
:102C60000000000000000100080100080100080346
:102C7000FFF807FFF8000008000008000008000047
:102C80000000000000000001C03802C05804009895
:102C9000040118040218040418061C1803F818018B
:102CA000E0F800000000000000000001C0E003C0E8
:102CB000F004000804080804080806180803F418BB
:102CC00001E7F00001E0000000000000000000004B
:102CD0000300000D000011000061000081080301E5
:102CE0000807FFF80FFFF8000108000108000000C6
:102CF0000000000000E007FCD006080806100806E7
:102D00001008061008061838060FF00607C0000065
:102D100000000000000000003F8001FFE00384305D
:102D200002081804100804100804100807181003FB
:102D30000FF00007C000000000000000000003C00A
:102D4000000700000600000600F80607F806180055
:102D500006E000070000060000000000000000017F
:102D6000E1E003F7F0063410041808041808040C16
:102D700008040C0806161803F3F001C1E000000077
:102D800000000000F80003FC3003063804020804C9
:102D900002080402080404100308F001FFC0007FC9
:102DA0000000000000000000000000000000000023
:102DB000000000007038007038007038000000001B
:102DC0000000000000000000000000000000000003
:102DD0000000000000000000301A00301C0000005D
:102DE00000000000000000000000000000000000E3
:102DF00000000008000014000022000041000080D4
:102E000080010040020020040010080008000000BB
:102E1000000000002100002100002100002100002E
:102E200021000021000021000021000021000021DC
:102E3000000000000000000000000800080400106E
:102E400002002001004000808000410000220000BC
:102E5000140000080000000000000003C00004C0CF
:102E600000040000080038080F380808380810006F
:102E70000C300007E00003C000000000000000006C
:102E80003F8000FFE0038070020F1006708804C0CE
:102E900088048308047F8802C09003012000FE405C
:102EA0000000080000180001F8003E0801C20007F9
:102EB000020007E20000FE00001FC80001F8000049
:102EC0003800000804000807FFF807FFF8040808A6
:102ED00004080804080804080806180803F4180180
:102EE000E7F00001E0000000000000003F8001FF6B
:102EF000E0038070020018040008040008040008C1
:102F00000400100600200780C0000000040008072D
:102F1000FFF807FFF8040008040008040008040094
:102F20001802001003807001FFE0007F80000000A5
:102F300004000807FFF807FFF8040808040808045D
:102F40000808040808043E080400080600180100E8
:102F50006000000004000807FFF807FFF8040808F5
:102F6000040800040800040800043E0006000006EF
:102F70000000018000000000000000003F8001FF11
:102F8000E003807006001804000804020804020828
:102F90000203F00783F000020000020004000807AB
:102FA000FFF807FFF8040808000800000800000800
:102FB0000000080004080807FFF807FFF8040008ED
:102FC00000000000000004000804000804000807D6
:102FD000FFF807FFF80400080400080400080000D8
:102FE00000000000000000000006000007000001D3
:102FF00004000104000104000307FFFE07FFFC04B6
:10300000000004000004000004000807FFF807FFA8
:10301000F8040C08001800003E0004C7800503C82F
:103020000600F8040038040018000008040008072F
:10303000FFF807FFF804000800000800000800007F
:1030400008000008000008000018000060000000F0
:1030500004000807FFF807800807FC00007FC00095
:1030600003F80007C000780007800807FFF807FF93
:10307000F804000804000807FFF807000803C00070
:1030800000E000003800001E000007000001C0043E
:1030900000F007FFF8040000000000007F8001FF3F
:1030A000E0038070060018040008040008060018F9
:1030B00003003001FFE0007F8000000004000807EB
:1030C000FFF807FFF80404080404000404000404E3
:1030D00000040400060C0003F80001F000000000EA
:1030E000000000007F8001FFE0038070060088047C
:1030F00000880400C806003C03003E01FFE6007F94
:103100008400000004000807FFF807FFF80408081F
:10311000040800040C00040F00040BC00610F003A8
:10312000F03801E00800000800000001E0F803F0BA
:1031300030063010041808041808040C08040C08A1
:103140000206180207F00781E00000000180000677
:10315000000004000004000004000807FFF807FF57
:10316000F8040008040000040000060000018000CC
:1031700004000007FFE007FFF0040018000008004B
:10318000000800000800000800000804001007FF05
:10319000E004000004000006000007E00007FE0055
:1031A000041FE00001F80000380001E0043E0007C1
:1031B000C00006000004000004000007E00007FF54
:1031C000C0041FF80007C007F80007FF80043FF89D
:1031D0000007C004F800070000040000000000041D
:1031E000000806001807C07805F1C8003E00001F5F
:1031F000800463E80780F806001804000800000057
:1032000004000006000007800007E008047C0800B6
:103210001FF80007F800180804E00807000006007F
:10322000000400000000000100080600380400F857
:103230000403E8040F08047C0805F00807C0080729
:103240000018040060000000000000000000000002
:10325000000000000000003FFFFE200002200002EE
:1032600020000220000220000200000000000000F8
:10327000000008000007000000C000003800000641
:10328000000001C000003000000E0000010000003E
:1032900000000000000020000220000220000220A8
:1032A00000022000023FFFFE0000000000000000BE
:1032B0000000000000000000000000000008000006
:1032C0001000003000002000003000001000000856
:1032D00000000000000000000000010000010000EC
:1032E00001000001000001000001000001000001D8
:1032F00000000100000100000100000100000000CA
:10330000000000000020000020000010000010005D
:1033100000000000000000000000000000000000AD
:103320000000000000F00019F8001B18002208003F
:103330002608002408002410003FF8001FF80000B1
:103340000800001800000004000007FFF80FFFF05D
:10335000001818001008002008002008003018008D
:103360001FF0000FC00000000000000007C0001F99
:10337000F0001830002008002008002008003C0859
:10338000001C1000006000000000000000000000B1
:1033900007C0001FF0003818002008002008002097
:1033A0000804101007FFF80FFFF0000010000000E5
:1033B0000000000000000007C0001FF000123000F5
:1033C0002218002208002208003208001E10000EF9
:1033D000200000000000000020000020080020085D
:1033E00001FFF803FFF8062008042008042008075E
:1033F000200003000000000000000000000E000E8E
:103400006E001FF30031B10020B10020B1003191F6
:10341000001F13002E1E00200E00300000000004CC
:10342000000807FFF80FFFF8001008002000002038
:1034300000002008003FF8001FF80000080000000E
:1034400000000000000000200800200800200806FE
:103450003FF8063FF80000080000080000080000E0
:103460000000000000000000000000000300000356
:10347000002001002001002003063FFE063FFC0063
:10348000000000000000000000000004000807FF2A
:10349000F80FFFF8000188000300002FC00038F883
:1034A0000020380020080000080000000000000094
:1034B000000004000804000804000807FFF80FFFDC
:1034C000F8000008000008000008000000000000EC
:1034D000002008003FF8003FF8001008002000001E
:1034E0003FF8003FF8001008002000003FF8003FC0
:1034F000F8000008000000002008003FF8003FF836
:10350000001008001000002000002008003FF80014
:103510001FF80000080000000000000007C0000FB6
:10352000F0001830003008002008002008003008A3
:10353000001830000FF00007C0000000000000007D
:103540002001003FFF003FFF001011002009002074
:1035500008002008003038001FF0000FC0000000F5
:103560000000000007C0001FF0003818002008000D
:103570002008002009001011001FFF003FFF00007D
:1035800001000000002008002008002008003FF88B
:10359000003FF80008080010080020080020000084
:1035A0003000003000000000000000000000000CAF
:1035B00078001E1800330800230800210800218825
:1035C0000021980030F0003860000000000000008A
:1035D000200000200000200000FFF003FFF8002082
:1035E0000800200800200800003000000000000053
:1035F000000000002000003FF0007FF800001800ED
:103600000008000008002010003FF8007FF00000D4
:1036100010000000000000002000003000003C000E
:10362000003F800023F0000078000070002380003D
:103630003C00003000002000002000003C00003F63
:10364000E00023F80000E0002700003E00003FE01B
:103650000021F80001E0003E000020000000000012
:103660002008002008003838003E6800278000034A
:10367000C8002CF80038380020180020080000008E
:10368000000000002000003003003C01003F8300E8
:1036900023EC000070002380003C0000200000208C
:1036A0000000000000000000000000380800203882
:1036B0000020F80023E8002F88003E0800380800AA
:1036C0002018000070000000000000000000000052
:1036D000000000000000000008000014001FF7FCBC
:1036E0003000062000020000000000000000000082
:1036F0000000000000000000000000000000FFFFCC
:10370000FF000000000000000000000000000000BA
:103710000000000000002000023000061FF7FC003F
:10372000140000080000000000000000000000007D
:1037300000000000000000180000600000400000D1
:1037400040000020000010000008000004000004F9
:1037500000000C0000100000783700080000002076
:103760003400000024090008AC37000834000020B1
:1037700044060000340900080000000000000000BA
:103780000000000000000000000000000100000038
:1037900000000000000000001D000000000000000C
:0C37A0000000000000000000001C4E0EA5
:04000005080001AD41
:00000001FF
