:020000040800F2
:10000000D00D0020C101000855090008250800088E
:1000100051090008AD0700088D110008000000001C
:100020000000000000000000000000008D0E00082D
:100030001508000800000000830D0008ED0E000800
:10004000DB010008DB010008DB010008DB01000820
:10005000DB010008DB010008DB010008DB01000810
:10006000DB010008DB010008DB010008DB01000800
:10007000DB010008DB010008DB010008DB010008F0
:10008000DB010008DB010008DB010008DB010008E0
:10009000DB010008DB010008DB010008DB010008D0
:1000A000DB010008DB010008DB010008DB010008C0
:1000B000DB010008DB010008DB010008DB010008B0
:1000C000DB010008DB010008DB010008DB010008A0
:1000D000DB010008DB01000841100008DB0100081B
:1000E000DB010008DB010008DB010008DB01000880
:1000F000DB010008DB010008DB010008DB01000870
:10010000DB010008DB010008DB010008DB0100085F
:10011000DB010008DB010008DB010008DB0100084F
:10012000DB010008DB010008DB010008DB0100083F
:10013000DB010008DB010008DB010008DB0100082F
:10014000DB010008DB010008DB010008DB0100081F
:10015000DB010008DB010008DB010008DB0100080F
:10016000DB010008DB010008DB010008DB010008FF
:10017000DB010008DB010008DB01000800000000D3
:10018000DB010008DB010008DB010008DB010008DF
:10019000DB010008DB010008DB01000800000000B3
:1001A000DB010008DB010008DB010008DFF80CD0F0
:1001B00000F0EAFA00480047D72B0008D00D0020D5
:1001C0000648804706480047FEE7FEE7FEE7FEE7F1
:1001D000FEE7FEE7FEE7FEE7FEE7FEE7FD0E0008AE
:1001E000AD01000840EA01039B0703D009E008C9FC
:1001F000121F08C0042AFAD203E011F8013B00F8EC
:10020000013B521EF9D27047D2B201E000F8012B37
:10021000491EFBD270470022F6E710B513460A4686
:1002200004461946FFF7F0FF204610BD10B50446FE
:1002300004E00B7800F8013B03B1491C521EF8D2D0
:10024000204610BD421C10F8011B0029FBD1801A6A
:10025000704730B504460020034600E05B1C934223
:1002600003D2E05CCD5C401BF8D030BD2DE9FE4FE1
:10027000804681EA0300C00F0C46009021F0004147
:1002800023F00045B8EB0200A94105D240462146C3
:1002900090461C460B46024623F00040104347D0D0
:1002A000270DC7F30A00C3F30A510290401A0190C8
:1002B00040286BDAC3F3130040F4801B0098924689
:1002C00020B10023D2EB030A63EB0B0B01985946D4
:1002D000C0F14002504600F029F906460D4650464E
:1002E0005946019A00F041F910EB080061410024E1
:1002F00087EA115284EAE7731A4340D0009A62B346
:10030000019A012A4FEA075215DC001B61EB02013A
:100310004FF0004202EA0752CDE90042001C41F5CD
:10032000801132462B4600F041F903B0BDE8F08F52
:1003300040462146F9E7001B61EB0201001C41F534
:10034000801300185B412018A2F5001747EB03014A
:1003500040EAD570B6196D4111E06D084FEA3606D6
:1003600045EAC0754FEA0752001B61EB0201001C11
:1003700041F5801149084FEA3000001951413246D9
:100380002B4603B0BDE8F04F00F001B90098012200
:1003900040000023D0EB020263EBE073009821469B
:1003A0004FEAE074B8EB000061EB0401E9E783F089
:1003B00000435BE781F0004158E72DE9FE4F81EAF9
:1003C000030404F0004421F0004100944FF0000BBE
:1003D00023F0004350EA01045ED052EA03045BD0EC
:1003E000C3F30A54C1F30A552C44A4F2F334019424
:1003F000A0FB0254C1F3130141F48011C3F31303B2
:1004000043F4801301FB024400FB034E840A970A65
:1004100044EA815447EA8357A4FB076802958D0A92
:1004200005FB07854FEA932C04FB0C542705029D1E
:100430004FEA065847EA1637B5EB08056EEB070C8E
:10044000870E920E47EA811742EA8312A7FB020148
:10045000B6EB0B0164EB00042B0D43EA0C335E1882
:1004600044EB1C50DA465146E7FB0201C5F3130486
:100470004FEA0B3343EA14534FEA0432019C43EA38
:100480000603A4F10C040294009CCDE900B400F032
:100490008DF803B0BDE8F08F00200146F9E730B5D4
:1004A0000B46014600202022012409E021FA02F532
:1004B0009D4205D303FA02F5491B04FA02F52844CC
:1004C000151EA2F10102F1DC30BD2DE9F05F0546F9
:1004D000002092469B4688460646814640241BE003
:1004E000284641464746224600F02FF853465A46D2
:1004F000C01A914110D311461846224600F016F852
:100500002D1A67EB01084F4622460120002100F01A
:100510000DF817EB00094E41201EA4F10104DFDCA9
:10052000484631462A464346BDE8F09F202A04DB70
:10053000203A00FA02F1002070479140C2F12003F6
:1005400020FA03F3194390407047202A04DB203A35
:1005500021FA02F00021704721FA02F3D040C2F1E3
:1005600020029140084319467047202A06DBCB172A
:10057000203A41FA02F043EAE07306E041FA02F35E
:10058000D040C2F12002914008431946704710B58F
:10059000141E73F1000408DA401C41F100019218A6
:1005A0005B411A4301D120F0010010BD2DE9F04D4F
:1005B00092469B4611B1B1FA81F202E0B0FA80F2A4
:1005C00020329046FFF7B2FF04460F4640EA0A0089
:1005D00041EA0B0153465A46084313D0114653EAE9
:1005E000010019D0C8F140025046FFF7AEFF0546A2
:1005F0000E46504659464246FFF798FF084305D03D
:10060000012004E020463946BDE8F08D0020054376
:1006100046EAE0762C4337430A986305E40AA0EBE8
:1006200008000022FD0A44EA47540A3002D500209F
:100630000146E9E7010510196941DDE9084500199E
:100640006941BDE8F04DA2E72DE9F04D81EA0304D0
:1006500004F0004B21F0004514464FF0000A23F04F
:10066000004150EA050220D054EA01021DD0C5F332
:100670000A570246C5F31303C1F31300C1F30A5628
:1006800040F4801543F48013A7EB0608101BD646F0
:1006900008F2FD3873EB050002D308F1010801E010
:1006A00092185B41B8F1000F03DA00200146BDE863
:1006B000F08D00204FF48011064684460EE0171B93
:1006C00073EB050705D3121B63EB050306434CEAE6
:1006D000010C49084FEA300092185B4150EA0107CB
:1006E000EDD152EA030012D082EA040083EA050148
:1006F000084305D0101BAB4106D20122002306E0BF
:1007000000224FF0004302E06FF0010253101AEB99
:1007100006004CEB085110EB0A0041EB0B01BDE861
:10072000F04DFFF734BFC1F30A52C1F3130140F299
:10073000FF3341F480119A4202DA002001467047EB
:1007400040F233439A42A2F2334202DC5242FFF7B4
:10075000FCBEFFF7EBBE000030B5041E71F10004D3
:1007600004DB4FF00044404264EB0101141E73F1BE
:10077000000405DB1C464FF00043524263EB0403C8
:10078000994208BF904230BD064C074D06E0E06834
:1007900040F0010394E8070098471034AC42F6D3C8
:1007A000FFF708FDD8560008F856000800BFFEE71E
:1007B00000B589B040F6164002F0A2FC00211248B4
:1007C00001F0EFFE114800900120019010480290C6
:1007D000002003904FF400600490002005900690E4
:1007E00002200790000408906A460021064801F0A4
:1007F00087FF00221146044801F0C0FE0021024894
:1008000001F0ACFE09B000BD006402404C20014084
:100810000A0000207047000001480068704700008F
:100820000000002000BFFEE710B54FF40073012266
:100830001146124802F087F94FF400730222012199
:100840000E4802F0A7F94FF400710C4802F071F95C
:100850004FF48071094802F06CF900F071F84FF420
:100860000071064802F063F900F06AF84FF48071F5
:10087000024802F05CF900F063F810BD0004024089
:1008800010B54FF40073012211460E4802F05BF9D7
:100890004FF40073022201210A4802F07BF94FF461
:1008A0000071084802F043F94FF48071054802F0E6
:1008B00040F900F045F84FF40071024802F039F9B0
:1008C00010BD00000004024010B54FF400711B4839
:1008D00002F02FF900F034F84FF48071174802F05D
:1008E00028F900F02DF84FF400730122002113487D
:1008F00002F029F905E0601CC4B2FE2C01DDFFF70F
:10090000BFFF4FF400710D4802F015F90028F2D135
:100910004FF48071094802F00AF900F011F84FF421
:10092000007301221146054802F00DF94FF40073DF
:1009300002220121014802F02DF910BD00040240FD
:10094000782000BF011EA0F1010290B2FAD17047D9
:1009500000BFFEE77047000010B5002807DA0A075D
:10096000140E054A00F00F031B1FD45403E00A07BE
:10097000130E024A135410BD18ED00E000E400E02D
:1009800070B500240CE0002506E00020074901EBCB
:1009900085010855681CC5B2802DF6DB601CC4B209
:1009A000042CF0DB00F00CF970BD000018000020F2
:1009B00070B50B46CE1701EB5676C6F3C702CE17BD
:1009C00001EB5676F610A1EBC606F4B20123A34064
:1009D000DDB20E4B03EB80039B5CDB430B4E06EB5F
:1009E0008006B354094B03EB80039B5C2B43074EFB
:1009F00006EB8006B354054B03EB80039B5CDB43A3
:100A0000024E06EB8006B35470BD000018000020B3
:100A100070B50A46CE1701EB5676C6F3C703CE175C
:100A200001EB5676F610A1EBC606F4B20122A24005
:100A3000D5B2054A02EB8002D25C2A43024E06EB95
:100A40008006F25470BD00001800002010B540F67A
:100A5000014002F055FB4FF48073012211464A48D1
:100A600002F071F84FF4807302220121464802F02F
:100A700091F84FF48071444802F05BF84FF4007332
:100A800001221146404802F05EF84FF40073022242
:100A900001213D4802F07EF84FF400713A4802F01F
:100AA00048F80021AE2000F050F90021084600F07F
:100AB0004CF90021102000F048F90021402000F0FE
:100AC00044F90021812000F040F90021CF2000F0FE
:100AD0003CF90021A12000F038F90021C82000F0E5
:100AE00034F90021A62000F030F90021A82000F000
:100AF0002CF900211F2000F028F90021D32000F05C
:100B000024F90021084600F020F90021D52000F04A
:100B10001CF90021802000F018F90021D92000F0F4
:100B200014F90021F12000F010F90021DA2000F082
:100B30000CF90021084600F008F90021DB2000F044
:100B400004F90021402000F000F90021202000F0ED
:100B5000FCF80021022000F0F8F800218D2000F0C0
:100B6000F4F80021142000F0F0F80021A42000F097
:100B7000ECF80021A62000F0E8F80021AF2000F0FA
:100B8000E4F8FFF7FDFE10BD000402400FB470B59D
:100B9000C2B004460D4616464AA8019002A8019A22
:100BA000499900F00BFB00200190E9B2E0B2334616
:100BB00002AA00F0A9F842B070BC5DF814FB000076
:100BC00070B500241CE004F1B001C8B2002100F0AF
:100BD000BCF80021084600F0B8F80021102000F011
:100BE000B4F8002508E0084901EB8501085D012102
:100BF00000F0ABF8681CC5B2802DF4DB601CC4B2F9
:100C0000042CE0DB70BD0000180000202DE9FF4F30
:100C100081B080460E461C4600962046E31704EB42
:100C20005373DB1021464FEAE47C04EB5C7C4FEA13
:100C3000EC0CA4EBCC0CBCF1000F02D04FF0010C7B
:100C400001E04FF0000C6344224604EBD27C4FEAF3
:100C50006C0C03FB0CF303F0FF0B03982038C7B2B6
:100C6000002547E00C2C07D107EB4700234901EB97
:100C7000800010F805A014E0102C05D1204800EBEE
:100C8000071010F805A00CE0182C07D107EBC700DF
:100C90001C4901EB800010F805A002E005B0BDE89A
:100CA000F08F4FF000091FE00AF0800020B13146BC
:100CB0004046FFF7ADFE03E031464046FFF778FEC1
:100CC0004FEA4A604FEA106A701CC6B20098301AA8
:100CD000A04205D1009E08F1010000F0FF0806E0E7
:100CE00009F1010000F0FF09B9F1080FDCDB00BFDA
:100CF000681CC5B25D45B5DB00BFCFE7043F000807
:100D00007843000868490008F0B506460F461446C7
:100D10001D4613E022782B4639463046FFF776FF12
:100D2000284605EBD07106EB6101CEB2C5F180001B
:100D3000B04202DA0026B81CC7B2641C2078202812
:100D400002DB20787E28E5DDF0BD70B505460C4657
:100D5000FFF76AFD782000F09BF8FFF7B5FD1CB1A6
:100D6000402000F095F802E0002000F091F8FFF735
:100D7000ABFD284600F08CF8FFF7A6FDFFF780FDDD
:100D800070BD70472DE9F84304460F46164600250E
:100D900007B116B90120BDE8F883B4F1006F06D39E
:100DA000A0191D49884202D804F0030008B10020B0
:100DB000F1E701F045FE02F0F1F925E04FF0FF30D8
:100DC0000090A6EB0508B8F1040F01D94FF0040814
:100DD000791942466846FFF705FA6019009901F053
:100DE00041FE28B102F0DAF901F0ACFD0020D2E7B3
:100DF00060590099884205D002F0D0F901F0A2FDB7
:100E00000020C8E72D1D00BFB542D7D302F0C6F9B8
:100E100001F098FD0120BEE7000008082DE9F04729
:100E200004460D4666194FEA14384FEA083806F6AC
:100E3000FF704FEA10394FEA09393DB1B4F1006F44
:100E400004D31148864201D8A64202D20020BDE850
:100E5000F08701F0F5FD02F0A1F947460DE03846B4
:100E600001F07AFD28B102F099F901F06BFD002044
:100E7000EDE702F093F907F580574F45EFD301F006
:100E800061FD0120E3E70000000008087047000052
:100E900070B50446002524E04FF48071124801F03B
:100EA00046FE04F0800028B14FF400710E4801F0B6
:100EB00040FE04E04FF400710B4801F038FEFFF7EC
:100EC0003FFD4FF48071084801F033FEFFF738FD15
:100ED0004FF48071044801F02AFE6006040E681C7D
:100EE000C5B2082DD8DB70BD00040240024800687E
:100EF000401C0149086070470000002008B53048D8
:100F0000006840F470002E4908602E48006840F0E8
:100F100001002C49086000BF2A48006800F0020068
:100F20000028F9D000BF27480830006840F0800052
:100F30002449083108600020009002E00098401C1D
:100F4000009000985028F9D31E480830006840F0FF
:100F500090001C49083108600020009002E00098D1
:100F6000401C009000985028F9D300BF1548083065
:100F7000006820F003001349083108601148006838
:100F8000114908400F4908600846006820F4802095
:100F9000086000200B490831086000BF094808308C
:100FA000006800200028F9D108480649091D08609A
:100FB000002004490C31086002F0E4F908BD00008B
:100FC00088ED00E000380240FFFFF6FE10300024FC
:100FD00010B54FF490610448FFF71DF90020034954
:100FE00008800349087010BD580200200600002048
:100FF0000800002010B50621064801F09FFA2022C3
:101000000621044801F037FB0621034802F0E7FA05
:1010100010BD0000006002400044004010B5054BC8
:10102000054A0621054801F059FC01F025FCFFF7AF
:10103000BFFB10BDD8060020044400400060024001
:1010400010B51049104802F00DFBD0B10E4802F067
:1010500039FA0E49087001F02FFD0D490880084645
:101060000088B0F5906F02D340F27F4008800020E6
:101070000849074A1288885401200749087002F07D
:1010800075F810BD04030400004400400400002073
:1010900006000020580200200800002010B540F68D
:1010A000034002F02DF840F6044002F029F841F226
:1010B000110002F025F84FF48073002201212F481F
:1010C00001F041FD4FF48073022200212B4801F012
:1010D00061FD4FF48071294801F029FD2023012290
:1010E0000221274801F02FFD20220721244801F08A
:1010F000EFFC402301220221214801F024FD40227F
:1011000007211F4801F0E4FCFFF788FF1D4802F0AB
:10111000DFF94FF4E1311B4802F060F90021194872
:1011200002F0DCFA0021174802F0C8FA0021154845
:1011300002F0B4FA0821134802F0C8FA0421114859
:1011400002F0B4FA80210F4802F03AFA40210D482B
:1011500002F02CFA00220221262001F043FD4FF478
:101160004171084802F071FA064802F033FAFFF7BD
:101170002FFF00200449087010BD0000001002403D
:10118000000C0240004400400400002000BFFEE7C5
:101190007CB5044600201D46164600290BD0491E8A
:1011A000CDE90041044B6A462946304600F0EAF892
:1011B000009A002111707CBDB31A000837B514469F
:1011C0000846064B6A46214600F0DCF804466946AC
:1011D000002000F079FC20463EBD0000C91A00083E
:1011E00002E008C8121F08C1002AFAD170477047F0
:1011F000002001E001C1121F002AFBD1704700004E
:101200002DE9FF5F82B00021DDE90430020DDDF839
:1012100040B0034318D044F61050A2F2FF324243CC
:101220001514119801281FD0A5EB0B00401C5FEA94
:10123000000A4FF000064E4FDFF83891B046504696
:1012400015D5CAF1000413E0119801244AA301281E
:1012500001D16FEA0B010298119AC0E90031C0E98F
:10126000024206B0BDE8F09FCBF10000DFE7044684
:101270000021404A491842EB0450CDE9001012E029
:10128000E00707D032463B4640464946FFF795F80F
:101290008046894632463B4610461946FFF78DF890
:1012A00006460F466410002CEAD1DDE90401DDE9B1
:1012B0000023BAF1000F06DAFFF77FF842464B46EB
:1012C000FFF77BF805E0FFF7BFF942464B46FFF713
:1012D000BBF904460E460022284BFFF73DFA03D81F
:1012E0004FF0FF30014607E00022254B20463146F3
:1012F000FEF7BCFFFFF717FA102409E0002C0ADB09
:101300000A220023FFF7E1F8039B30321A55641ECE
:1013100050EA0102F2D1641C039AC4F1110314448F
:10132000119A012A03D0012208430DD10AE0084393
:1013300004D000204FF0110B119072E7A3EB0B05C6
:101340006D1E0DE05B4504DD4FF0000205F1010567
:1013500004E003DA4FF00002A5F10105002AECD009
:1013600002981199C0E90231C0E9004579E700000F
:10137000000014400000F03F300000000000F04387
:101380000000E03F2DE9FF4F95B09B468946064699
:1013900000250FE2252877D100242746F84A0121AD
:1013A000059400E0044316F8013F203B01FA03F0E6
:1013B0001042F7D130782A2811D06FF02F033078FF
:1013C000A0F13002092A16D8059A44F0020402EB73
:1013D000820203EB42021044761C0590EFE759F8B5
:1013E000042B0592002A03DA504244F4005405907D
:1013F00044F00204761C30782E2816D116F8010F1E
:1014000044F004042A280DD06FF02F023078A0F1A8
:101410003003092B09D807EB870302EB4303C718F6
:10142000761CF3E759F8047B761C30786C280FD0D3
:1014300006DC4C2817D068280DD06A2814D104E0A7
:10144000742810D07A280FD10DE044F400140AE07B
:1014500044F4801401E044F440147278824202D1D2
:1014600004F58014761C761C307866280BD013DCCB
:10147000582877D009DC002875D04528F6D04628B2
:10148000F4D047281AD19DE118E0632835D06428AC
:1014900079D0652812D195E1702873D008DC6728CF
:1014A000F1D069286FD06E280DD06F2806D1B5E035
:1014B00073282CD0752875D0782874D05A4617997F
:1014C00090476D1C75E1C4F30250022809D003282F
:1014D0000DD0D9F8001004280DD00D6009F10409D1
:1014E00067E1D9F80010EA17C1E90052F6E7D9F828
:1014F00000100D80F2E70D70F0E719F8041B8DF86D
:10150000001000208DF80100EA46012003E059F8A0
:1015100004AB4FF0FF3061074FF0000102D40DE043
:1015200008F101018846B9420FDA8045F8DB1AF864
:1015300008100029F4D108E008F101018846814231
:10154000FADB1AF808100029F6D105985B46A0EBE3
:10155000080721463846179A00F094FA284400EB11
:10156000080507E04DE029E10DE01AF8010B5A46A5
:1015700017999047B8F10108F7D25B4621463846E3
:10158000179A13E142E00A220092C4F302524FF08C
:10159000000A022A08D059F804CB032A4FEAEC715A
:1015A0000AD00DE029E02AE009F1070121F0070245
:1015B000F2E802C1914609E00FFA8CFC4FEAEC71A7
:1015C000042A03D14FFA8CFC4FEAEC71002907DAA8
:1015D0000A460021DCF1000C61EB02012D2202E041
:1015E000220504D52B228DF80420012203E0E20716
:1015F00001D02022F7E7904659E00A2102E01022AC
:101600000DE010214FF0000A00910BE010224FF086
:10161000000A44F004040827009203E008224FF077
:10162000000A0092C4F30252022A05D059F804CBF2
:101630000021032A08D009E009F1070121F007027F
:10164000F2E802C1914605E01FFA8CFC042A01D1A0
:101650000CF0FF0C4FF00008220728D5702806D0A8
:10166000009B83F0100353EA0A0305D00EE04022EA
:101670008DF80420012208E05CEA010206D0302245
:101680008DF804208DF8050002229046009B83F01F
:10169000080353EA0A030AD15CEA010201D1620796
:1016A00005D530228DF804204FF001087F1E582800
:1016B00004D034A003900EA802900DE036A0F9E704
:1016C00053466046009AFEF700FF84460398825C0A
:1016D0000298401E029002705CEA0100F0D102986C
:1016E00006A9081A00F1200A600702D524F4803404
:1016F00000E00127574502DDA7EB0A0000E00020CB
:1017000000EB0A01009005984144401A0590E0035F
:1017100006D45B462146179A059800F0B3F90544B4
:10172000002706E001A85A46C05D179990476D1C36
:101730007F1C4745F6DBE0030CD55B462146179A34
:10174000059800F09FF9054404E030205A461799A7
:1017500090476D1C0099481E00900029F5DC08E0B8
:10176000029802995A460078491C029117999047AD
:101770006D1CBAF10001AAF1010AF1DC65E100007B
:101780000928010030313233343536373839616257
:10179000636465660000000030313233343536371B
:1017A00038394142434445460000000000F058F9F2
:1017B0000544761C307800287FF4ECAD19B028463B
:1017C000BDE8F08F620700D4062709F1070222F076
:1017D000070CFCE80223E14603F000485FEA080C2E
:1017E00002D00FF2702C0DE05FEA045C02D50FF21C
:1017F000682C07E05FEAC47C02D00FF2602C01E0A5
:10180000AFF2700C4FF0FF3823F00043CDF850C01A
:1018100065280CD006DC452809D046281DD047286D
:101820003DD13DE0662818D067287ED138E0002100
:10183000112F01DB112000E0781CCDE9000106A981
:101840000EA8FFF7DDFCDDE90F010E9A03910021E0
:10185000009207F1010A04914DE04FF0004000971B
:10186000CDE9011006A90EA8FFF7CAFCDDE90F02B9
:1018700003920E9B11990022DDF80CA000930492B4
:1018800011B9791C00EB010AB7EB0A0004D4C0F1CE
:10189000FF3007F1010A0490AAEB0700019044E031
:1018A000012F00DA01270021112F01DD112000E0B6
:1018B0003846CDE9000106A90EA8FFF7A1FCDDE935
:1018C0000F010E9A0391002104910092BA4621075C
:1018D0000CD40399514500DA8A46BAF1010F05DDAF
:1018E000009AAAF10101515C302908D0B84202DA0D
:1018F00010F1040F06DA0121CDE9011015E0AAF17B
:101900000101E9E7002805DC049901440491AAEBF0
:10191000000102E0411C514500DD8A460499401A4D
:10192000401C01904FF000400290200704D4019821
:10193000504501DBCDF8048000208DF84F0002985F
:101940000DF14F07B0F1004F25D02B200E900298DB
:101950004FF0020800280CDA404202902D200E9031
:1019600007E00A210298FEF79AFD3031029007F84D
:10197000011DB8F10001A8F10108F2DC029800286D
:10198000EFD1791E0E980870307800F0200040F0FA
:10199000450007F8020D12A8C01B00F107081498B3
:1019A000007800B1012000EB0A01019801EBE07121
:1019B00005984144401A401E0590E00306D45B465A
:1019C0002146179A059800F05DF8054414980078B0
:1019D00018B15A46179990476D1CE00324D55B4611
:1019E0002146179A059800F04DF805441CE004982C
:1019F000002807DBDDE90301884203DD0098405C35
:101A0000179901E0179930205A469047049805F13C
:101A10000105401C04900198401E019004D12E2025
:101A20005A46179990476D1CBAF10001AAF1010AB4
:101A3000DDDC05E017F8010B5A46179990476D1C3D
:101A4000B8F10001A8F10108F4DC5B462146179AC1
:101A50000598ABE62D0000002B00000020000000E0
:101A60002DE9F041044600251E461746880404D49B
:101A700005E039462020B0476D1C641EF9D5284684
:101A8000BDE8F0812DE9F041044600251E46904650
:101A9000C80301D5302700E02027880404D505E0DD
:101AA00041463846B0476D1C641EF9D52846BDE84E
:101AB000F0814A68002A06D00A68531C0B60107037
:101AC0004868401E486070470A68531C0B601070DD
:101AD0007047000000B5024800F04CF800BD00005F
:101AE0000010030800B5024800F044F800BD0000F3
:101AF0000010010870B504462568666872B64FF498
:101B00004171174801F094FD0021154801F04EFD88
:101B10000521144800F012FD0621124800F00EFDC8
:101B200000204FF0E02108614861886100BF08E0B3
:101B30004FF0FF320C4941F820200C4941F8202099
:101B4000401C0828F4D30A480460BFF34F8FBFF34A
:101B50006F8F00BF85F3088800BFB04770BD0000DD
:101B6000004400400060024080E100E080E200E0CC
:101B700008ED00E001460A684B68B2F1005F10D33F
:101B8000094882420DD802F0030050B9B3F1006F4A
:101B900007D30648834204D203F0010008B10120B4
:101BA00070470020FCE70000000003200000080848
:101BB00030B502460B464FF6FF70002111E0545C31
:101BC000604000240AE000F0010525B14AF2010559
:101BD00085EA600500E045102846641C082CF2D315
:101BE000491C9942EBD330BD30B50B46002110E0C3
:101BF0005C5C6040002409E000F001051DB1064D69
:101C000085EA500500E045082846641C082CF3D3FB
:101C1000491C9142ECD330BD2083B8ED10B501F0E2
:101C2000B5FBFFF73BFAFEF711FF00F0B5F810BD6A
:101C300010B512A3102200210846FEF7A7FF12A339
:101C4000102211460020FEF7A1FFFEF7B9FF00F0B9
:101C5000E1F980B9FEF7E0FD044600BFFEF7DCFDC8
:101C6000001B41F288318842F8D300F013F808B124
:101C700000BFFEE700BF00F023F810BD323032365F
:101C80003633393538340000426F6F746C6F6164DD
:101C90006572000010B5FFF725FF20B10748FFF778
:101CA00029FF012010BD00F009FC20B10348FFF717
:101CB00021FF0120F6E70020F4E7000000100108F2
:101CC00008B54FF0FF30009001270020234908702D
:101CD000234981F8280000F07FF9214800F0ACFB8F
:101CE00000F07AF91FA001F067FAFEF795FD0646AD
:101CF00033E06FB3FEF790FD851B42F21070854212
:101D000001D3002005E04FF47A70B5FBF0F0C0F18C
:101D10000A0080466946404600F04CF8642000F016
:101D200073F80446022C00D1002742F2107085425D
:101D30000DD31848C079A52803D10021154800F01B
:101D4000EFF9FFF7A7FF08B100BFFEE7002703E0A8
:101D50004FF47A7000F058F800BFCAE71400002072
:101D6000A40800207573696E6720636F6D6D616EE6
:101D70006420746F20696E7465727275707420735C
:101D800074617274204170706C69636174696F6E04
:101D90000D0A00009808002010B5044800F080F9F2
:101DA000034800F041FB00F0C9F910BD980800207D
:101DB000A408002070B504460D460A2C05D0072C57
:101DC00003D0042C01D0012C07D12868A04204D0F4
:101DD000214602A001F0F0F92C6070BD77616974B2
:101DE00020666F72207374617274204170706C6928
:101DF000636174696F6E28256C7573292E2E2E2EE3
:101E00002E2E0D0A0000000070B586B00646594817
:101E100081886A46304600F035FA044614B900203D
:101E200006B070BD032C01D10120F9E7022C0FD1BF
:101E30005148007820B100204F4908700120EFE799
:101E40004C4988884EF6EE6100F086F90120E7E7FC
:101E50000020494908709DF8020005280BD1BDF803
:101E600004004FF6FF71884205D14249888800F08E
:101E7000EFF90120D4E79DF80200012807D03D4981
:101E800088884EF6EE6100F067F90120C8E7BDF8DA
:101E90000400A0F2111038B101280AD0A0F2F130EC
:101EA00060B101285CD132E0BDF8040000F07CF89C
:101EB0005DE0BDF8040000F065F858E09DF806000C
:101EC00030B1BDF804102B4A908800F045F94EE07F
:101ED00000F082F8294800F0C5FA054655B9BDF86A
:101EE0000410244A908800F0BFF9012022490870AC
:101EF000022095E7BDF804101E4A908800F02CF9E6
:101F00001E4800F099FA01201B4908702FE09DF847
:101F1000060030B1BDF80410164A908800F01CF994
:101F200025E0164890F8280030B9BDF80410114A91
:101F3000908800F011F91AE0BDF804100D4A90885D
:101F400000F092F900F048F80A490C4800F01AFA3B
:101F5000054615B90A48FFF7CDFD00F03DF806E04B
:101F6000044988884EF6EE6100F0F6F800BF00BF25
:101F7000012055E79808002014000020A408002044
:101F8000001001081CB50446064880790190012024
:101F900004490090888801AB2246022100F0E8F84D
:101FA0001CBD0000980800201CB504460948808824
:101FB00000128DF80400074800798DF80500022012
:101FC00004490090888801AB2246022100F0D0F835
:101FD0001CBD00009808002010B5FEF7D1FC07A337
:101FE000102200210846FEF7D1FD07A3102211465A
:101FF0000020FEF7CBFDFEF7E3FD10BD3230323698
:102000003633393538340000426F6F746C6F616459
:10201000657200000348C079A52801D101207047EE
:102020000020FCE7980800200146112905D012295C
:1020300003D0132901D0142901D1012070470020B9
:10204000FCE7014609B1A52901D101207047002014
:10205000FCE710B5044608212046FFF7A9FD10BD96
:1020600010B50446002020606060A0600648206033
:102070000120A0801420A0710020E0712046FFF70D
:10208000E8FFA06010BD0000544F4F42014629B147
:102090004FF6FF70814201D2012070470020FCE71B
:1020A00010B50446114A07CA84E8070010492068A1
:1020B000884213D12046FFF7CCFFA16888420DD19A
:1020C000A088FFF7E3FF48B1A079FFF7ADFF28B183
:1020D000E079FFF7B6FF08B1012010BD2046FFF7F9
:1020E000BFFF204600F006F80020F6E700000108D8
:1020F000544F4F4210B504462046FFF7AAFFA06098
:102100004FF480510548FEF789FE08B9002010BD44
:102110000C2221460148FEF735FEF8E700000108D1
:1021200070B505460C462046FFF78BFF08B9002026
:1021300070BDEC712846FFF7DDFFF9E710B5FEF73B
:1021400047FF01F013F84FF44171024801F07DFAA6
:1021500010BD00000044004038B505460C46002084
:1021600003462246FF210090284600F001F838BDC2
:102170002DE9F04FA1B006468A4617469B46DDF88A
:10218000A880002400200090B8F1100F02D921B0DF
:10219000BDE8F08FA5222046641C19A90A54B62276
:1021A0002046641C0A5432122046641C0A542046FD
:1021B000641C0E542046641C01F800A03A1220460C
:1021C000641C0A542046641C0F542046641C01F809
:1021D000008002222046641C0A54002006E01BF8FE
:1021E00000302146641C19AA5354401C4045F6D3C4
:1021F000214619A8FFF7DCFC05462A122046641C7C
:1022000019A90A542046641C0D54B6222046641CA9
:102210000A54A5222046641C0A544FF0000908E025
:1022200019A810F80920694601A800F047FD09F136
:102230000109A145F4D3002001A9009A885402A005
:1022400000F0BAFF00BFA2E725730D0A00000000EE
:1022500038B504460020034648F688020521009060
:102260002046FFF785FF38BD7CB505460C46FF20AC
:102270000190012001AB2246022100902846FFF781
:1022800077FF7CBD2DE9FC4706460F469046FEF7DA
:10229000C3FA814625E01748007808B31648048839
:1022A000802C00D98024224614491548FDF79AFF56
:1022B000FFF744FF01A84023124A2146009010482E
:1022C00000F010FD05469DF8040010B10220BDE8A5
:1022D000FC8743463A4629460A4800F066FDF6E781
:1022E00000BFFEF799FAA0EB0900B042D3D300205B
:1022F000EDE7000008000020060000205802002042
:10230000D80700205808002010B5FFF7EBFB08B9EC
:10231000002010BD4FF400310648FEF77FFD08B9DC
:102320000020F6E74FF400320349024800F006F8B7
:10233000EFE7000000100308001001082DE9F0414C
:10234000074688461546002416E02E1BB6F5807F0A
:1023500001D94FF4807608EB040132460848FDF7B6
:1023600041FF381932460649FEF70CFD10B900202E
:10237000BDE8F081344400BFAC42E6D30120F7E76A
:10238000D00800202DE9F04105460E46002795F8BB
:10239000280018B1284600F0AFF810B90220BDE8B7
:1023A000F081286A041F14B1B4F5003F01D905205B
:1023B000F5E7FFF7A9FF07464FF400311148FEF794
:1023C0002DFD08B90420EAE722460F490D48FFF722
:1023D000B5FF40B122460C490A4800F017F810B189
:1023E000FFF780FB20B90FB100F068F80420D6E7B2
:1023F00000213046FFF794FE08B90420CFE7002003
:10240000CDE70000001001080410050870B504466F
:102410000D461646324629462046FDF71AFF08B9F2
:10242000012070BD0020FCE710B504462C21204699
:10243000FDF7F1FE10BD000010B5044694F8290028
:1024400008B1012010BD4FF400310548FEF7E6FC4D
:1024500008B90020F6E7012084F8290000BFF1E761
:102460000010050870B50446002084F828002821D3
:102470002046FDF7D0FE2046FFF7DEFF08B9042016
:1024800070BD22464FF400310B4800F0FBFC0546BE
:10249000FFF754FE002084F829000DB12846EFE72D
:1024A000204600F029F808B90220E9E7012084F865
:1024B00028000020E4E700000010050810B5FFF731
:1024C00009FB08B9002010BD4FF400310848FEF7A1
:1024D000A5FC08B90020F6E74FF40032054904488E
:1024E000FFF72CFF08B90020EDE7FFF7FBFAEAE75A
:1024F000001001080010030870B505460E4C286A4C
:10250000042803D9286AB0F5003F01D9002070BD26
:1025100020785A2808D16078A52805D1A078C3284A
:1025200002D1E0783C2801D00020F0E70248001DED
:10253000FFF720FBEBE700000010050810B501EBEA
:102540004102D30000F11002D25822F0010301EB46
:102550004102D40000F11002135110BD10B501EB7F
:102560004102D30000F11002D25842F0010301EB06
:102570004102D40000F11002135110BD30B51346D2
:1025800001EB4104E50000F11004625922F06062A1
:1025900042EA436201EB4104E50000F1100462519C
:1025A00030BD10B501EB4102D30000F11002D2584A
:1025B00022F0010301EB4102D40000F1100213519B
:1025C000002301EB4102D40000F11002135101EB92
:1025D0004102D40000F11402135101EB4102D40076
:1025E00000F11802135101EB4102D40000F11C026A
:1025F000135101EB4102D40000F1200213512123B9
:1026000001EB4102D40000F12402135104290CDA39
:1026100001EB41025300C1F3400203EB82033D2270
:102620009A4083681A4382600DE00A1FD1B201EB21
:1026300041025300C1F3400203EB82033D229A4062
:10264000C3681A43C26010BD70B504460D461646F5
:1026500029462046FFF772FF20222946204600F037
:102660000AF832462946204600F0F6F82946204668
:10267000FFF774FF70BD10B504290CDA01EB4103BC
:102680005C00C1F3400304EB830302FA03F38468A4
:10269000234383600DE00B1FD9B201EB41035C00C3
:1026A000C1F3400304EB830302FA03F3C46823433A
:1026B000C36010BD10B5034604290FDA01EB4100D9
:1026C0004400C1F3400004EB800402FA04F01C68EB
:1026D000204008B1012010BD0020FCE7081FC1B256
:1026E00001EB41004400C1F3400004EB800402FA16
:1026F00004F05C68204008B10120ECE70020EAE724
:1027000070B501EB4104E50000F12404645924F0A4
:10271000040501EB4104E60000F12404A55101EB9E
:102720004104E60000F118041568A55101EB4104CD
:10273000E60000F11C049568A55101EB4104E60098
:1027400000F11404D569A55101EB4104E50000F145
:10275000100463593F4C2340146944EA8404156A09
:102760002C4395692C43234301EB4104E50000F120
:1027700010046351546874B901EB4104E50000F1A1
:102780001004645944F4007501EB4104E60000F1C3
:102790001004A5511FE05468012C0ED101EB410437
:1027A000E50000F11004645924F4007501EB4104C4
:1027B000E60000F11004A5510DE001EB4104E50035
:1027C00000F11004645944F4004501EB4104E600B3
:1027D00000F11004A551D46874B901EB4104E5007F
:1027E00000F11004645944F4806501EB4104E600F3
:1027F00000F11004A5510DE001EB4104E50000F1EA
:102800001004645924F4806501EB4104E60000F1F2
:102810001004A551546974B901EB4104E50000F1BD
:102820001004645944F4807501EB4104E60000F1A2
:102830001004A5510DE001EB4104E50000F1100486
:10284000645924F4807501EB4104E60000F11004A2
:10285000A55170BD3F87FCFF10B501EB4103DC00C3
:1028600000F114031A5110BD024601EB4100C300F0
:1028700002F11400C058704700B589B040F6154009
:1028800000F03EFC05211248FFF78BFE1148009036
:1028900001200190104802900020039004900590C0
:1028A00006904FF4906007904FF4803008906A468D
:1028B00005210748FFF724FF042205210448FFF7FC
:1028C0005DFE05210248FFF749FE09B000BD00008A
:1028D000006002400444004058020020F0B589B076
:1028E00006460F4614461D4640F6154000F008FC0B
:1028F00040F6164000F004FC39463046FFF751FE22
:102900000094012001900295002003900490012082
:10291000059040200690002007904FF480300890EA
:102920006A4639463046FFF7EBFE04223946304608
:10293000FFF724FE09B0F0BD0149086070470000B0
:102940000C3C02400348006840F000400149086028
:1029500070470000103C024030B5044600256FF07F
:10296000304000F037F805466DBB1848184908603C
:1029700044F00040091F086015481438006820F032
:10298000F8001349143908600846006840F0020056
:1029900008600846006840F4803008606FF03040FE
:1029A00000F018F805460A48001F006820F00040B3
:1029B0000749091F086006481438006820F0020023
:1029C000034914390860284630BD0000D6C7B8A9AD
:1029D000243C024010B50346012400BF00F00AF871
:1029E00004465B1E012C01D1002BF7D103B907244B
:1029F000204610BD0020114A116801F480320AB14E
:102A0000012019E001F480720AB1022014E001F003
:102A100080020AB103200FE001F040020AB1042055
:102A20000AE001F010020AB1052005E001F00202FF
:102A30000AB1062000E00020704700000C3C024074
:102A40000548006800F0004028B1044802490C39EC
:102A50000860034808607047103C02402301674546
:102A6000AB89EFCD70B504460D4600266FF03040BF
:102A7000FFF7B0FF0646DEB90E48006820F440704C
:102A80000C4908600846006840F400700860084679
:102A9000006840F00100086025606FF03040FFF7EB
:102AA00099FF06460348006820F0010001490860CC
:102AB000304670BD103C024010B505210348FFF7B9
:102AC000D3FEC0F5906080B210BD000000600240EF
:102AD000F0B503461C6A5D6A00200DE001268640C1
:102AE00016403EB187000F26BE40B443860001FA6F
:102AF00006F63443461CB0B20828EFD3082011E094
:102B00000126864016405EB1A0F10806B7000F26E8
:102B1000BE40B543A0F10806B60001FA06F63543FB
:102B2000461CB0B21028EBD31C625D62F0BD81621E
:102B300070478161704702461069084008B1012062
:102B400070470020FCE7F0B504460D4616462168A4
:102B5000E268002019E0012787401F409FB14FEA3B
:102B6000400C032707FA0CF7B943470005FA07F7AB
:102B700039434FEA400C032707FA0CF7BA434700E2
:102B800006FA07F73A43471CB8B21028E3D321608E
:102B9000E260F0BDF0B50C461546012C03D1466845
:102BA0001E43466002E046689E43466082680021FC
:102BB0000DE001268E401E403EB14F000326BE4070
:102BC000B2434E0005FA06F632434E1CB1B210294C
:102BD000EFD38260F0BD10B5FFF720F8FFF728F8BB
:102BE000002010BD2DE9F04103460D461646002495
:102BF0000027A0462A48006800F4E060B0F5E06FC6
:102C000003D100BF4FF0040830E02548006800F40D
:102C1000E060B0F5C06F03D101274FF0030825E055
:102C20001F48006800F4E060B0F5A06F02D10227F1
:102C3000B8461BE01A48006800F4E060B0F5806F09
:102C400003D103274FF0010810E01548006800F495
:102C5000E060B0F5407F03D104274FF0000805E0A5
:102C60004FF4A06000F020F80227B846C7F1040036
:102C700005FA00F4C8F104010F20C84030400443B5
:102C800024010848C45403F01F0101208840591151
:102C9000890001F1E021C1F80001BDE8F0810000E8
:102CA0000CED00E000E400E002490143024A11603B
:102CB000704700000000FA050CED00E030B5084B4D
:102CC00003EB12131C780D686B1C0B60445502F06B
:102CD0000F03034CE45C0D686B1C0B60445530BD66
:102CE000C45600082DE9FF5F05468A4693460E9FAD
:102CF0004FF000084FF0FF3900203870002430E01A
:102D0000285D202808D0285D0D2805D0285D0A28D8
:102D100002D0285D092800D122E0285D00F02CF8BF
:102D20000646002E05DA01203870002004B0BDE808
:102D3000F09FB9F1000F01DAB14610E00398804529
:102D400003D3012038700020F0E746EA0910C2B230
:102D5000404608F101080BF800204FF0FF3900BF92
:102D6000641C5445CCD3B9F1000F03DB012038704B
:102D70000020DBE74046D9E70146302904DB39294A
:102D800002DCA1F130007047412904DB462902DC56
:102D9000A1F13700F7E7612904DB662902DCA1F124
:102DA0005700F0E74FF0FF30EDE72DE9F04705461B
:102DB0000E4691461C4618212046FDF72CFA0D2E92
:102DC00002D20220BDE8F087A81C00F04AF820805B
:102DD0002879A070681D00F044F8A080E879A071FF
:102DE000A07900F10D07BE4214D1284600F039F851
:102DF0004AF2B65188420DD1287A02280AD1B91E6A
:102E0000481900F02EF84BF2A561884202D1A07952
:102E1000102801D90220D5E7A1790931481900F01D
:102E200020F88246A07900F109012846FEF7C0FE8D
:102E30008046C24501D00220C4E72088484506D01C
:102E400020884FF6FF71884201D00320BAE7A079AD
:102E500028B1A27905F10901E01DFDF7C3F90120B0
:102E6000B0E7014648780A7840EA0220704710B57A
:102E7000FFF722FE0446B4F5906F01D3002010BD89
:102E80002046FCE72DE9F04F87B082468B4614467A
:102E90000026002500200590401E0490002003908D
:102EA00014B1BBF1000F03D1052007B0BDE8F08FCE
:102EB00028212046FDF7AFF9FF22042106A8FDF7DF
:102EC000A3F91F2240A12046FDF7B0F94FF441714C
:102ED0003F4800F0ADFBFEF77BF800F047F9FFF745
:102EE000C6FF0746FDF798FC8046C1464EE0FFF757
:102EF000BEFF029031E038467F1C3649085C0190E5
:102F0000B7F5906F00D300275D4502D325620520F9
:102F1000CBE7012201A90498FEF766FE04909DF814
:102F200004203046761C06A90A546D1C042E0ED1CE
:102F300005990AEB0100042206A9FDF723FF10B949
:102F400025620420B1E70598001D059000260120A8
:102F50000390FDF761FC814600BF02988742CAD109
:102F60002562039840B9FDF757FCA0EB08001A4909
:102F700088420AD3012098E7FDF74EFCA0EB090038
:102F800040F6B831884200D301E000BFAFE700BF90
:102F90000DB9012089E78EB104E0FF223046761C8E
:102FA00006A90A54042EF8D305990AEB010004225D
:102FB00006A9FDF7E7FE08B9042076E72562049824
:102FC000C0436062002070E77261772E62696E0014
:102FD000004400405802002020BF02002DE9F04FBD
:102FE0008CB0064600200A903EA090E8004CC068D5
:102FF000CDE905BECDF810A007900FF2EC0ADAE992
:10300000000ACDE9020A0FF2E00ADAE9000ACDE986
:10301000000A38480068C0F381000B900B9820B17B
:10302000012804D0022828D103E0334927E033499E
:1030300025E03048001F006800F03F072D48001FC2
:103040000068C0F3881C2B48001F0068C0F30140D3
:10305000401C4FEA40092748001F006800F4800820
:10306000B8F5800F01D1254B00E0234BB3FBF7F0FF
:1030700000FB0CF0B0FBF9F101E01F4900BF00BFFD
:103080001C480068C0F3031404A8055D21FA05F28A
:1030900018480068C0F3822402A8055D22FA05F0F2
:1030A000099014480068C0F342341DF8045022FA15
:1030B00005F0089036B1012E06D0022E06D0032E60
:1030C0000AD106E00A9108E00A9206E009980A90FF
:1030D00003E008980A9000E000BF00BF0A980CB017
:1030E000BDE8F08F000000000000000001020304B2
:1030F00006070809083802400024F40040787D01E2
:10310000074A02EB9011D1F8001800F01F030122CA
:103110009A401143024B03EB9012C2F8001870471B
:1031200000300240074A02EB9011D1F8001800F07D
:103130001F0301229A409143024B03EB9012C2F805
:103140000018704700300240074A02EB9011D1F896
:10315000001800F01F0301229A401143024B03EBB9
:103160009012C2F8001870470030024010B50521D7
:103170000948FFF7E3F9202205210748FFF77BFA0A
:103180004FF4906205210448FFF766FB05210248D1
:10319000FFF7E4F910BD00000060024010B5012007
:1031A000FFF7CAFB1020FFF7C7FB8020FFF7C4FB27
:1031B0004020FFF7C1FB10BD0FB470B5C2B047A8E7
:1031C00001904FF4807102A8019B469AFDF7E0FF41
:1031D000054600200190002D04DA284642B070BC5C
:1031E0005DF814FB02A8FDF72DF884B2FF2C00D97E
:1031F000FF2434B94FF480711B48FFF798FC00207E
:10320000ECE7224602A91948FCF7ECFFFDF7F2FEB5
:103210004FF480711448FFF78CFC224606211448B5
:10322000FFF712FA002600E0761C1248864206D20A
:10323000202206210E48FFF73DFA0028F4D0002690
:1032400000E0761C0B48864205D206210A4800F0B1
:10325000E0F90028F5D0FDF7CDFE4FF4807102486B
:10326000FFF765FC2046B9E700100240D8060020B1
:1032700000600240A08601000044004000200021C0
:103280003D4A126842F480323B4B1A6000BF401C3A
:10329000394A126802F4003119B94FF6FF729042B0
:1032A000F5D1354A126802F4003232B900BF324A11
:1032B000126802F40032002AF9D02F4A4032126814
:1032C00042F080522C4B40331A602C4A126842F470
:1032D00040422A4B1A60284A08321268264B0833AB
:1032E0001A601A46126842F400421A601A461268BE
:1032F00042F4A0521A60224A1B1F1A601A1F126859
:1033000042F080721B1F1A6000BF1B4A126802F055
:103310000072002AF9D0194A126842F48032174B21
:103320001A6000BF154A526802F48032002AF9D0B0
:10333000124A126842F40032104B1A6000BF0F4A62
:10334000526802F40032002AF9D00B4A083212689F
:1033500022F00302084B08331A601A46126842F042
:1033600002021A6000BF044A0832126802F0080222
:10337000002AF8D07047000000380240007000407A
:103380001978400A10B5FFF779FF10BD10B5124843
:1033900000684FF47A71B0FBF1F4601EB0F1807FE9
:1033A00001D301200FE0601E4FF0E02148610F21A2
:1033B0004FF0FF30FDF7D0FA00204FF0E021886198
:1033C00007200861002008B100BFFEE70021481E69
:1033D000FDF7C2FA10BD0000100000202DE9F047F3
:1033E00004460D460027B846B94600263349601A00
:1033F0008C4235D00CDC32482044E8B1B0F5806F07
:103400001FD0B0F5006F21D0B0F5406F32D122E06F
:10341000B0F5806F29D0B0F5184F03D0B0F51C4F30
:1034200028D104E00320FFF7D9FD074623E003205D
:10343000FFF7D4FD07461EE00220FFF7CFFD074649
:1034400019E00220FFF7CAFD074614E00220FFF74B
:10345000C5FD07460FE00220FFF7C0FD07460AE062
:103460000220FFF7BBFD074605E00220FFF7B6FD8F
:10347000074600E000BF00BFE06800F4004070B104
:10348000780000EB5500B0FBF5F64FF6F07006EA59
:103490000008C6F3420948EA0900A0600CE007EB07
:1034A0005500B0FBF5F64FF6F07006EA000806F09E
:1034B0000F0948EA0900A060BDE8F08700780040E5
:1034C00000BCFFBF01464868C0F308007047000019
:1034D00010B504463349601A8C424DD00CDC32489A
:1034E0002044E0B1B0F5806F22D0B0F5006F31D04C
:1034F000B0F5406F52D136E0B0F5806F45D0B0F5F1
:10350000184F03D0B0F51C4F48D11AE040F6041014
:10351000FFF71AFE40F60410FFF704FE3FE040F606
:103520001100FFF711FE40F61100FFF7FBFD36E03A
:1035300040F61200FFF708FE40F61200FFF7F2FD1A
:103540002DE040F60510FFF7FFFD40F60510FFF7F0
:10355000E9FD24E040F61300FFF7F6FD40F6130006
:10356000FFF7E0FD1BE040F61400FFF7EDFD40F62D
:103570001400FFF7D7FD12E040F61E00FFF7E4FD50
:1035800040F61E00FFF7CEFD09E040F61F00FFF7F2
:10359000DBFD40F61F00FFF7C5FD00E000BF00BFE8
:1035A00010BD00000078004000BCFFBF426922F05F
:1035B00040024261426901F040031A434261704790
:1035C000426922F080024261426901F080031A439D
:1035D00042617047C16841F40051C160704710B545
:1035E00043F2080291420BD100EB9112126801F0F4
:1035F0001F040123A3409A4300EB91131A6007E0D4
:1036000001F01F0301229A40D24300EB91131A608C
:1036100010BD10B5024602EB9110006801F01F04C6
:103620000123A340184008B1012010BD0020FCE791
:1036300010B500EB9112126801F01F040123A340A2
:103640009A4300EB91131A6010BD10B500EB911274
:10365000126801F01F040123A3401A4300EB9113E9
:103660001A6010BD70B5024600230024C1F3891012
:10367000105801F01F060125B54000EA050302EBD2
:1036800091500068C1F304460125B54000EA0504E5
:1036900014B10BB1012070BD0020FCE7C26822F418
:1036A000C062C260C2680A43C26070470A46002115
:1036B000C16821F004011143C1607047026922F41E
:1036C0004052026102690A43026170470A460021C2
:1036D000C16821F008011143C1607047C26822F43B
:1036E0008052C260C2680A43C26070470000000096
:1036F00000000000002F0000000007000700001479
:103700007F147F1400242A7F2A1200626408132386
:1037100000364955225000000503000000001C221D
:103720004100000041221C000014083E081400085B
:10373000083E0808000000A060000008080808080B
:10374000000060600000002010080402003E5149A3
:10375000453E0000427F4000004261514946002141
:1037600041454B31001814127F100027454545395B
:10377000003C4A49493000017109050300364949B6
:10378000493600064949291E00003636000000006F
:1037900056360000000814224100001414141414BA
:1037A0000000412214080002015109060032495963
:1037B000513E007C1211127C007F49494936003E7F
:1037C00041414122007F4141221C007F494949413A
:1037D000007F09090901003E4149497A007F080834
:1037E000087F0000417F4100002040413F01007FF1
:1037F00008142241007F40404040007F020C027FBD
:10380000007F0408107F003E4141413E007F0909CE
:103810000906003E4151215E007F091929460046F4
:10382000494949310001017F0101003F4040403FCB
:10383000001F2040201F003F4038403F0063140815
:1038400014630007087008070061514945430000F0
:103850007F41410000552A552A55000041417F0013
:103860000004020102040040404040400000010208
:103870000400002054545478007F484444380038F1
:103880004444442000384444487F00385454541879
:1038900000087E0901020018A4A4A47C007F08048B
:1038A00004780000447D4000004080847D00007F5B
:1038B000102844000000417F4000007C0418047878
:1038C000007C0804047800384444443800FC242474
:1038D00024180018242418FC007C0804040800485C
:1038E0005454542000043F444020003C4040207C7D
:1038F000001C2040201C003C4030403C004428106C
:103900002844001CA0A0A07C004464544C4414141F
:103910001414141400000000000000000000000057
:1039200000000000000000F800000000000000336C
:103930003000000000100C06100C06000000000013
:103940000000000040C07840C0784000043F0404FC
:103950003F040400007088FC08300000001820FFBD
:10396000211E0000F008F000E018000000211C03F8
:103970001E211E0000F00888700000001E21232474
:103980001927211010160E00000000000000000092
:1039900000000000000000E0180402000000000722
:1039A0001820400000020418E00000000040201829
:1039B00007000000404080F0804040000202010FFC
:1039C00001020200000000F0000000000101011FE0
:1039D00001010100000000000000000080B0700044
:1039E00000000000000000000000000000010101D4
:1039F0000101010100000000000000000030300063
:103A0000000000000000000080601804006018063C
:103A10000100000000E010080810E000000F102076
:103A200020100F00001010F8000000000020203FC0
:103A3000202000000070080808887000003028244A
:103A400022213000003008888848300000182020EB
:103A500020110E000000C02010F800000007042410
:103A6000243F240000F80888880808000019212055
:103A700020110E0000E0108888180000000F1120AF
:103A800020110E0000380808C83808000000003F68
:103A9000000000000070880808887000001C2221C7
:103AA00021221C0000E010080810E0000000312274
:103AB00022110F00000000C0C00000000000003014
:103AC0003000000000000080000000000000806066
:103AD00000000000000080402010080000010204E7
:103AE00008102000404040404040400004040404CE
:103AF000040404000008102040800000002010088A
:103B000004020100007048080808F00000000030BE
:103B100036010000C030C828E810E000071827244C
:103B200023140B000000C038E0000000203C2302FA
:103B30000227382008F8888888700000203F20205D
:103B400020110E00C030080808083800071820208F
:103B50002010080008F808080810E000203F202086
:103B600020100F0008F88888E8081000203F202067
:103B70002320180008F88888E8081000203F20005B
:103B800003000000C0300808083800000718202093
:103B9000221E020008F808000008F808203F210152
:103BA00001213F20000808F8080800000020203FFD
:103BB0002020000000000808F8080800C08080806D
:103BC0007F00000008F888C028180800203F200166
:103BD0002638200008F8080000000000203F2020C0
:103BE0002020300008F8F800F8F80800203F003FD7
:103BF000003F200008F830C00008F808203F2000EF
:103C000007183F00E01008080810E0000F102020FF
:103C100020100F0008F808080808F000203F2101D4
:103C200001010000E01008080810E0000F1824242B
:103C300038504F0008F8888888887000203F20009E
:103C4000030C302000708808080838000038202154
:103C500021221C00180808F8080818000000203F5E
:103C60002000000008F808000008F808001F2020C5
:103C700020201F000878880000C838080000073896
:103C80000E010000F80800F80008F800033C0700E7
:103C9000073C0300081868808068180820302C034F
:103CA000032C30200838C800C83808000000203F26
:103CB0002000000010080808C83808002038262115
:103CC00020201800000000FE020202000000007F19
:103CD00040404000000C30C0000000000000000127
:103CE0000638C00000020202FE0000000040404012
:103CF0007F00000000000402020204000000000037
:103D000000000000000000000000000080808080B3
:103D1000808080800002020400000000000000009B
:103D20000000000000008080808000000019242234
:103D300022223F2008F8008080000000003F112070
:103D400020110E000000008080800000000E112075
:103D500020201100000000808088F800000E112053
:103D600020103F200000808080800000001F222261
:103D700022221300008080F0888888180020203FCD
:103D8000202000000000808080808000006B9494E0
:103D90009493600008F8008080800000203F21009C
:103DA00000203F2000809898000000000020203F65
:103DB00020200000000000809898000000C0808053
:103DC000807F000008F8000080808000203F2402EF
:103DD0002D302000000808F8000000000020203FDF
:103DE000202000008080808080808000203F200094
:103DF0003F20003F8080008080800000203F210025
:103E000000203F200000808080800000001F2020D4
:103E100020201F00808000808000000080FFA12003
:103E200020110E000000008080808000000E112014
:103E300020A0FF80808080008080800020203F21A3
:103E40002000010000008080808080000033242456
:103E500024241900008080E0808000000000001F02
:103E6000202000008080000000808000001F2020B3
:103E700020103F20808080000080808000010E3074
:103E80000806010080800080008080800F300C03D5
:103E90000C300F0000808000808080000020312ED8
:103EA0000E312000808080000080808080818E70B4
:103EB0001806010000808080808080000021302C66
:103EC0002221300000000000807C0202000000007F
:103ED000003F404000000000FF0000000000000024
:103EE000FF0000000002027C800000000040403F14
:103EF00000000000000601010202040400000000AE
:103F000000000000000000000000000000000000B1
:103F1000000000003F4000000000000000003000F2
:103F2000400030004000000009000BC03D000BC005
:103F30003D00090018C024407FE02240318000008D
:103F4000180024C01B000D803240018003801C40FB
:103F500027401C8007400040100060000000000067
:103F6000000000000000000000001F8020404020F2
:103F70000000402020401F800000000009000600D3
:103F80001F80060009000000040004003F800400B8
:103F900004000000001000600000000000000000AD
:103FA00004000400040004000400000000000040BD
:103FB0000000000000000000002001C006003800E2
:103FC000400000001F802040204020401F80000053
:103FD000000010403FC000400000000018C0214019
:103FE00022402440184000001080204024402440FB
:103FF0001B80000002000D0011003FC001400000C6
:104000003C80244024402440238000001F80244022
:1040100024403440038000003000200027C03800D6
:10402000200000001B802440244024401B8000000E
:104030001C0022C0224022401F800000000000001F
:1040400008400000000000000000000004600000C4
:1040500000000000000004000A0011002080404021
:1040600009000900090009000900000000004040A3
:10407000208011000A0004001800200023402400C2
:10408000180000001F802040274029401F400000EA
:10409000004007C039000F0001C0004020403FC071
:1040A000244024401B8000001F80204020402040EE
:1040B0003080000020403FC0204020401F80000092
:1040C00020403FC024402E4030C0000020403FC070
:1040D00024402E00300000000F00108020402240BD
:1040E0003380020020403FC0040004003FC0204055
:1040F000204020403FC020402040000000602020A1
:1041000020203FC02000200020403FC024400B0062
:1041100030C0204020403FC020400040004000C050
:104120003FC03C0003C03C003FC0000020403FC0F7
:104130000C4023003FC020001F8020402040204032
:104140001F80000020403FC02440240018000000D1
:104150001F802140214020E01FA0000020403FC0E0
:104160002440260019C0004018C0244024402240AA
:1041700031800000300020403FC02040300000006F
:1041800020003F80004000403F80200020003E0093
:1041900001C0070038002000380007C03C0007C0FD
:1041A00038000000204039C0060039C0204000001F
:1041B0002000384007C0384020000000304021C0B7
:1041C0002640384020C00000000000007FE0402072
:1041D00040200000000070000C0003800040000040
:1041E0000000402040207FE0000000000000200090
:1041F000400020000000000000100010001000101F
:10420000001000100000000040000000000000004E
:10421000000002800540054003C0004020003FC070
:104220000440044003800000000003800440044078
:104230000640000000000380044024403FC00040CE
:1042400000000380054005400340000000000440DA
:104250001FC0244024402000000002E0055005500B
:104260000650042020403FC00440040003C000402A
:104270000000044027C000400000000000100010B3
:10428000041027E00000000020403FC0014007006C
:1042900004C00440204020403FC0004000400000D7
:1042A00007C0040007C0040003C00000044007C0AA
:1042B0000440040003C000400000038004400440A8
:1042C00003800000041007F0045004400380000045
:1042D000000003800440045007F00010044007C0B1
:1042E00002400400040000000000064005400540B4
:1042F00004C00000000004001F80044000400000D3
:10430000040007800040044007C00040040007008C
:1043100004C0018006000400060001C0070001C0BF
:1043200006000000044006C0010006C00440000072
:104330000410071004E0018006000400000004409F
:1043400005C00640044000000000000004007BE0BF
:1043500040200000000000000000FFF0000000000E
:10436000000040207BE004000000000040008000CE
:10437000400020002000400000000000000000007D
:1043800000000000000000000000000000001FCC42
:10439000000C000000000000000008003000600079
:1043A0000800300060000000022003FC1E200220F4
:1043B00003FC1E200220000000000E1811043FFF25
:1043C00010840C78000000000F0010840F3800C02B
:1043D000077818840078000000780F8410C4112436
:1043E0000E9800E4008400080800680070000000D7
:1043F000000000000000000000000000000007E0D6
:104400001818200440020000000040022004181880
:1044100007E00000000000000240024001800FF0B1
:1044200001800240024000000080008000800FF800
:1044300000800080008000000001000D000E0000E0
:1044400000000000000000000000008000800080EC
:1044500000800080008000800000000C000C000044
:1044600000000000000000000000000600180060CE
:104470000180060018002000000007F00808100462
:104480001004080807F000000000080408041FFCDE
:10449000000400040000000000000E0C10141024A2
:1044A000104411840E0C000000000C1810041104BC
:1044B000110412880C700000000000E003200424A6
:1044C00008241FFC0024000000001F981084110421
:1044D0001104108810700000000007F00888110413
:1044E000110418880070000000001C00100010FC6F
:1044F00013001C001000000000000E38114410844E
:10450000108411440E38000000000700088C10448D
:104510001044088807F00000000000000000030CB1
:10452000030C000000000000000000000001010674
:104530000000000000000000000000800140022098
:1045400004100808100400000220022002200220AB
:1045500002200220022000000000100408080410BD
:10456000022001400080000000000E001200100C2C
:10457000106C10800F00000003E00C1813E41424EA
:1045800017C4082807D000000004003C03C41C40E6
:10459000074000E4001C000410041FFC1104110477
:1045A00011040E880070000003E00C1810041004C1
:1045B000100410081C10000010041FFC100410044C
:1045C0001004080807F0000010041FFC1104110477
:1045D00017C410040818000010041FFC1104110077
:1045E00017C010000800000003E00C1810041004AD
:1045F00010441C780040000010041FFC1084008050
:10460000008010841FFC10040000100410041FFC24
:10461000100410040000000000030001100110014C
:104620001FFE10001000000010041FFC1104038086
:104630001464181C1004000010041FFC1004000473
:1046400000040004000C000010041FFC1F0000FC0C
:104650001F001FFC1004000010041FFC0C040300CA
:1046600000E010181FFC100007F0080810041004E8
:104670001004080807F0000010041FFC10841080CC
:10468000108010800F00000007F00818102410247C
:10469000101C080A07F2000010041FFC110411008E
:1046A00011C011300E0C000400000E1C1104108407
:1046B000108410441C3800001800100010041FFC67
:1046C000100410001800000010001FF8100400046F
:1046D000000410041FF8100010001E0011E0001C60
:1046E000007013801C0010001FC0103C00E01F0071
:1046F00000E0103C1FC000001004180C163401C06C
:1047000001C01634180C100410001C00130400FC27
:1047100013041C00100000000804101C1064108416
:1047200013041C04101800000000000000007FFEAD
:104730004002400240020000000030000C000380F4
:104740000060001C00030000000040024002400224
:104750007FFE00000000000000000000200040007C
:1047600040004000200000000001000100010001A5
:104770000001000100010001000040004000200095
:104780000000000000000000000000980124014427
:104790000144014400FC000410001FFC00880104D7
:1047A000010400880070000000000070008801040F
:1047B000010401040088000000000070008801046A
:1047C000010411081FFC0004000000F8014401442A
:1047D0000144014400C800000000010401040FFC72
:1047E0001104110411001800000000D6012901294C
:1047F000012901C90106000010041FFC008401000A
:104800000100010400FC000400000104190419FC6B
:10481000000400040000000000000003000101018A
:10482000190119FE0000000010041FFC00240040C4
:1048300001B4010C010400000000100410041FFC6E
:104840000004000400000000010401FC0104010058
:1048500001FC0104010000FC010401FC00840100D2
:104860000100010400FC0004000000F80104010440
:104870000104010400F80000010101FF00850104AA
:10488000010400880070000000000070008801042E
:104890000104010501FF00010104010401FC008481
:1048A0000104010001800000000000CC012401246B
:1048B000012401240198000000000100010007F814
:1048C0000104010400000000010001F800040004DC
:1048D0000004010801FC0004010001800170000CCB
:1048E000001001600180010001F0010C003001C0E6
:1048F0000030010C01F0010000000104018C007483
:104900000170018C01040000010101810171000EA0
:10491000001801600180010000000184010C0134D5
:1049200001440184010C00000000000000000000B0
:1049300001003EFC400240020000000000000000B8
:10494000FFFF0000000000000000400240023EFCAB
:1049500001000000000000000000600080008000F6
:104960004000400020002000000000000000000087
:104970000000000000000000000000000000000037
:104980000000000000000000000000000000000027
:1049900000000000000000000000000F80380FFE43
:1049A000380F803800000000000000000000000008
:1049B0000000000000000100000600000C000038AC
:1049C00000003100000600000C000038000030003C
:1049D000000000000000000061800067F807F98017
:1049E0000061800061800061800061800067F807DD
:1049F000F98000618000000000000000000001C09C
:104A0000E003E0F00630080418081FFFFE040E085B
:104A10000787F00381E000000000000001F00006BD
:104A20000C00040408060C7001F9C0000E00003BE5
:104A3000E000EC18070808040C180003E000000070
:104A40000001E00007F003F818041C080417080729
:104A5000E1D003C0E00023B0003C080020080000C3
:104A600010000000000000010000310000320000D2
:104A70001C0000000000000000000000000000001A
:104A80000000000000000000000000000000000026
:104A900000000000000000007F0001FFC00780F060
:104AA0000C0018100004200002000000000000208C
:104AB00000021000040C00180780F001FFC0007F06
:104AC00000000000000000000000000000000000E6
:104AD000000000004200006600006600003C00008C
:104AE000180003FFC0001800003C000066000066CC
:104AF000000042000000000008000008000008005C
:104B000000080000080001FFC000080000080000C5
:104B1000080000080000080000000000000100007C
:104B20003100003200001C00000000000000000006
:104B30000000000000000000000000000000000075
:104B40000800000800000800000800000800000835
:104B50000000080000080000080000080000000035
:104B6000000000000000000038000038000038009D
:104B70000000000000000000000000000000000035
:104B80000000000000000000000600001C00007093
:104B9000000180000E0000380000C0000700001C6B
:104BA0000000300000000000000000007F8001FFD6
:104BB000E0038070060018040008040008060018CE
:104BC00003807001FFE0007F800000000000000013
:104BD000000001000801000801000803FFF807FFBA
:104BE000F8000008000008000008000000000000B5
:104BF00000000001C03802C05804009804011804E5
:104C00000218040418061C1803F81801E0F8000044
:104C10000000000000000001C0E003C0F004000834
:104C200004080804080806180803F41801E7F0004F
:104C300001E0000000000000000000000300000D83
:104C40000000110000610000810803010807FFF85F
:104C50000FFFF8000108000108000000000000003C
:104C600000E007FCD0060808061008061008061029
:104C700008061838060FF00607C000000000000004
:104C8000000000003F8001FFE003843002081804A8
:104C90001008041008041008071810030FF000078C
:104CA000C000000000000000000003C0000700007A
:104CB0000600000600F80607F806180006E00007E0
:104CC000000006000000000000000001E1E003F722
:104CD000F0063410041808041808040C08040C0822
:104CE00006161803F3F001C1E00000000000000008
:104CF000F80003FC3003063804020804020804022A
:104D0000080404100308F001FFC0007F0000000049
:104D10000000000000000000000000000000000093
:104D2000703800703800703800000000000000008B
:104D30000000000000000000000000000000000073
:104D400000000000301A00301C00000000000000CD
:104D5000000000000000000000000000000000084B
:104D6000000014000022000041000080800100408B
:104D700002002004001008000800000000000000ED
:104D8000210000210000210000210000210000215D
:104D9000000021000021000021000021000000008F
:104DA00000000000000008000804001002002001BC
:104DB0000040008080004100002200001400000834
:104DC0000000000000000003C00004C00004000058
:104DD000080038080F380808380810000C300007A1
:104DE000E00003C000000000000000003F8000FF62
:104DF000E0038070020F1006708804C088048308E6
:104E0000047F8802C09003012000FE4000000800DB
:104E100000180001F8003E0801C20007020007E286
:104E20000000FE00001FC80001F800003800000864
:104E300004000807FFF807FFF8040808040808043E
:104E4000080804080806180803F41801E7F0000130
:104E5000E0000000000000003F8001FFE0038070E0
:104E600002001804000804000804000804001006EA
:104E700000200780C000000004000807FFF807FFBB
:104E8000F8040008040008040008040018020010D8
:104E900003807001FFE0007F80000000040008072D
:104EA000FFF807FFF80408080408080408080408C5
:104EB00008043E0804000806001801006000000015
:104EC00004000807FFF807FFF804080804080004B6
:104ED0000800040800043E000600000600000180EF
:104EE00000000000000000003F8001FFE003807030
:104EF0000600180400080402080402080203F00770
:104F000083F000020000020004000807FFF807FF1A
:104F1000F804080800080000080000080000080065
:104F200004080807FFF807FFF80400080000000065
:104F3000000004000804000804000807FFF807FF49
:104F4000F804000804000804000800000000000045
:104F5000000000000006000007000001040001043A
:104F6000000104000307FFFE07FFFC04000004002B
:104F70000004000004000807FFF807FFF8040C080D
:104F8000001800003E0004C7800503C80600F804AE
:104F9000003804001800000804000807FFF807FFA5
:104FA000F8040008000008000008000008000008DD
:104FB000000008000018000060000000040008075E
:104FC000FFF807800807FC00007FC00003F8000717
:104FD000C000780007800807FFF807FFF804000802
:104FE00004000807FFF807000803C00000E0000005
:104FF0003800001E000007000001C00400F007FF99
:10500000F8040000000000007F8001FFE0038070D2
:105010000600180400080400080600180300300108
:10502000FFE0007F8000000004000807FFF807FF92
:10503000F804040804040004040004040004040048
:10504000060C0003F80001F0000000000000000062
:105050007F8001FFE0038070060088040088040060
:10506000C806003C03003E01FFE6007F840000000C
:1050700004000807FFF807FFF80408080408000404
:105080000C00040F00040BC00610F003F03801E020
:105090000800000800000001E0F803F030063010BE
:1050A000041808041808040C08040C080206180266
:1050B00007F00781E0000000018000060000040006
:1050C0000004000004000807FFF807FFF8040008C8
:1050D0000400000400000600000180000400000736
:1050E000FFE007FFF00400180000080000080000BF
:1050F0000800000800000804001007FFE00400009A
:1051000004000006000007E00007FE00041FE000A6
:1051100001F80000380001E0043E0007C00006006E
:105120000004000004000007E00007FFC0041FF8AF
:105130000007C007F80007FF80043FF80007C0041D
:10514000F80007000004000000000004000806004A
:105150001807C07805F1C8003E00001F800463E80E
:105160000780F8060018040008000000040000068C
:10517000000007800007E008047C08001FF8000713
:10518000F800180804E0080700000600000400000A
:105190000000000100080600380400F80403E804D9
:1051A0000F08047C0805F00807C008070018040071
:1051B000600000000000000000000000000000008F
:1051C0000000003FFFFE200002200002200002201D
:1051D00000022000020000000000000000000800A3
:1051E0000007000000C0000038000006000001C0F9
:1051F00000003000000E0000010000000000000070
:1052000000002000022000022000022000022000F6
:10521000023FFFFE00000000000000000000000050
:105220000000000000000000000800001000003036
:105230000000200000300000100000080000000006
:10524000000000000000010000010000010000015A
:105250000000010000010000010000010000010049
:10526000000100000100000100000000000000003B
:1052700000200000200000100000100000000000CE
:10528000000000000000000000000000000000001E
:1052900000F00019F8001B1800220800260800245E
:1052A00008002410003FF8001FF800000800001854
:1052B00000000004000007FFF80FFFF000181800BE
:1052C0001008002008002008003018001FF0000F10
:1052D000C00000000000000007C0001FF0001830F0
:1052E000002008002008002008003C08001C1000D6
:1052F00000600000000000000000000007C0001F68
:10530000F0003818002008002008002008041010C1
:1053100007FFF80FFFF00000100000000000000081
:1053200000000007C0001FF0001230002218002209
:1053300008002208003208001E10000E20000000A5
:1053400000000000200000200800200801FFF803F2
:10535000FFF80620080420080420080720000300A6
:105360000000000000000000000E000E6E001FF3A1
:105370000031B10020B10020B1003191001F1300B5
:105380002E1E00200E00300000000004000807FF61
:10539000F80FFFF80010080020000020000020088F
:1053A000003FF8001FF800000800000000000000A7
:1053B0000000002008002008002008063FF8063FF3
:1053C000F8000008000008000008000000000000CD
:1053D00000000000000000000300000300200100A6
:1053E0002001002003063FFE063FFC0000000000F5
:1053F0000000000000000004000807FFF80FFFF89D
:10540000000188000300002FC00038F80020380099
:105410002008000008000000000000000000040058
:105420000804000804000807FFF80FFFF800000850
:105430000000080000080000000000000020080034
:105440003FF8003FF8001008002000003FF8003F40
:10545000F8001008002000003FF8003FF8000008A6
:10546000000000002008003FF8003FF8001008008E
:105470001000002000002008003FF8001FF8000086
:10548000080000000000000007C0000FF000183006
:105490000030080020080020080030080018300004
:1054A0000FF00007C0000000000000002001003FD6
:1054B000FF003FFF00101100200900200800200815
:1054C000003038001FF0000FC00000000000000096
:1054D00007C0001FF0003818002008002008002036
:1054E00009001011001FFF003FFF00000100000035
:1054F000002008002008002008003FF8003FF800C6
:1055000008080010080020080020000030000030CB
:1055100000000000000000000000000C78001E18D1
:10552000003308002308002108002188002198008A
:1055300030F0003860000000000000002000002073
:105540000000200000FFF003FFF800200800200802
:1055500000200800003000000000000000000000F3
:105560002000003FF0007FF8000018000008000055
:1055700008002010003FF8007FF00000100000003D
:10558000000000002000003000003C00003F8000D0
:1055900023F0000078000070002380003C00003001
:1055A00000002000002000003C00003FE00023F845
:1055B0000000E0002700003E00003FE00021F8006E
:1055C00001E0003E00002000000000002008002054
:1055D00008003838003E680027800003C8002CF817
:1055E00000383800201800200800000000000000EB
:1055F0002000003003003C01003F830023EC00004A
:1056000070002380003C000020000020000000000B
:105610000000000000000038080020380020F800DA
:1056200023E8002F88003E080038080020180000FA
:1056300070000000000000000000000000000000FA
:105640000000000008000014001FF7FC30000620D6
:105650000002000000000000000000000000000048
:1056600000000000000000000000FFFFFF0000003D
:10567000000000000000000000000000000000002A
:1056800000002000023000061FF7FC001400000894
:10569000000000000000000000000000000000000A
:1056A00000000018000060000040000040000020E2
:1056B00000001000000800000400000400000C00BE
:1056C000001000003031323334353637383941423A
:1056D0004344454600000000F85600080000002042
:1056E00018000000E0110008105700081800002002
:1056F000B80D0000F01100080000000000000000DC
:105700000000000000000000001C4E0E0000000021
:04000005080001AD41
:00000001FF
